S01200005333324B31343846324D2E73726563AD
S113000000F00120A1060000090700000907000014
S113001009070000090700000907000000000000AC
S113002000000000000000000000000009070000BC
S11300300907000000000000090700002910000063
S1130040090700000907000009070000090700006C
S1130050090700000907000009070000090700005C
S1130060090700000907000009070000090700004C
S1130070090700000907000009070000090700003C
S113008009070000090700009D1D00000907000082
S1130090090700000907000009070000090700001C
S11300A0090700000907000009070000090700000C
S11300B009070000090700000907000009070000FC
S11300C009070000090700000907000009070000EC
S11303F0090700000907000009070000FFFFFFFFCD
S1130400FFFFFFFFFFFFFFFFFFFFFFFFFE7FFFFF79
S113041000020403010103000000000100000000C9
S113042001010000010000000000000000000000C5
S1130430FFFFFFFFFFFFFFFFFFFFFFFFFFFFFFFFC8
S113044002000000010000000000000000000000A5
S1130450FFFFFFFFFFFFFFFFFFFFFFFFFFFFFFFFA8
S11304600300000001000000000000000000000084
S1130470FFFFFFFFFFFFFFFFFFFFFFFFFFFFFFFF88
S11304800400000001000000000000000000000063
S1130490FFFFFFFFFFFFFFFFFFFFFFFFFFFFFFFF68
S11304A00500000001000000000000000000000042
S11304B0FFFFFFFFFFFFFFFFFFFFFFFFFFFFFFFF48
S11304C00600000001000000000000000000000021
S11304D0FFFFFFFFFFFFFFFFFFFFFFFFFFFFFFFF28
S11304E00700000001000000000000000000000000
S11304F0FFFFFFFFFFFFFFFFFFFFFFFFFFFFFFFF08
S113050008000000010000000000000000000000DE
S1130510FFFFFFFFFFFFFFFFFFFFFFFFFFFFFFFFE7
S113052009000000010000000000000000000000BD
S1130530FFFFFFFFFFFFFFFFFFFFFFFFFFFFFFFFC7
S11305400A0000000100000000000000000000009C
S1130550FFFFFFFFFFFFFFFFFFFFFFFFFFFFFFFFA7
S11305600B0000000100000000000000000000007B
S1130570FFFFFFFFFFFFFFFFFFFFFFFFFFFFFFFF87
S11305800C0000000100000000000000000000005A
S1130590FFFFFFFFFFFFFFFFFFFFFFFFFFFFFFFF67
S11305A00D00000001000000000000000000000039
S11305B0FFFFFFFFFFFFFFFFFFFFFFFFFFFFFFFF47
S11305C01400000001000000000000000000000012
S11305D0FFFFFFFFFFFFFFFFFFFFFFFFFFFFFFFF27
S11305E015000000010000000000000000000000F1
S11305F0FFFFFFFFFFFFFFFFFFFFFFFFFFFFFFFF07
S113060016000000010000000000000000000000CF
S1130610FFFFFFFFFFFFFFFFFFFFFFFFFFFFFFFFE6
S113062017000000010000000000000000000000AE
S1130630FFFFFFFFFFFFFFFFFFFFFFFFFFFFFFFFC6
S1130640180000000100000000000000000000008D
S1130650FFFFFFFFFFFFFFFFFFFFFFFFFFFFFFFFA6
S1130660190000000100000000000000000000006C
S1130670FFFFFFFFFFFFFFFFFFFFFFFFFFFFFFFF86
S11306801A0000000100000000000000000000004B
S1130690FFFFFFFFFFFFFFFFFFFFFFFFFFFFFFFF66
S11306A072B64FF000014FF000024FF000034FF01C
S11306B000044FF000054FF000064FF00007B84665
S11306C0B946BA46BB46BC460A4880470A490B4A63
S11306D0521A013A05DD0020042308601944043A43
S11306E0FBDA074885460748804762B600F00EF8F3
S11306F0FEE700004D3900000000FE1F00F001205D
S113070000F0012021380000FFF7FEBF90B5C3B010
S113071008AF0023A7F8DE30002387F8DD3000237C
S1130720C7F8D830002387F8D730A04B07F120044E
S11307300FCB84E80F000023C7F8E03007F1100363
S113074000221A605A609A60DA603B4600221A60FE
S11307505A609A60DA60964B5B7887F8D630944B8F
S11307609B7887F8D530924BDB7887F8D430904B60
S11307701B79002B14BF0123002387F8D3308C4B43
S11307805B79002B14BF0123002387F8D230884BF8
S11307909B7987F8DD30864BDB791A06844B1B7A0C
S11307A01B041A43824B5B7A1B021343804A927ADE
S11307B01343C7F8D8307E4BDB7A87F8D7307D49AE
S11307C07D4800F029FD7B4B5B69002B14D197F821
S11307D0D730002B10D197F8D40097F8D52097F88C
S11307E0D61097F8D230019397F8D330009303468C
S11307F0704800F04DFD0AE06E4B5B69002B06D19A
S113080097F8D730012B02D16C4B1B68C9E06C48B8
S113081000F0E8FF01F004F997F8D730012B25D157
S113082007F11003184601F099F903461A46B7F880
S1130830DE301343A7F8DE303A4607F110031946B9
S1130840604800F04DFB03461A46B7F8DE30134308
S1130850A7F8DE303B46184601F0AEF903461A46C7
S1130860B7F8DE301343A7F8DE3092E097F8D730BC
S1130870002B40F08E80002387F8E73075E097F86E
S1130880E730514A5B01134401331B78012B67D1D4
S113089097F8E7304C4A5B0113441B78012B04D1D1
S11308A007F12003C7F8E03002E0464BC7F8E03018
S11308B00023A7F8DE3097F8E7305B011033424A93
S11308C0981897F8E730404A5B0113441C7897F86E
S11308D0E7303D4A5B01134404331B6897F8E72073
S11308E0394952010A440232127807F16001069133
S11308F007F17001059107F19001049107F1A0013E
S1130900039107F1C0010291019200932346012251
S11309100146D7F8E00000F095F803461A46B7F808
S1130920DE301343A7F8DE3097F8E730264A5B0140
S11309301344187807F1900407F1A00207F1C001ED
S113094007F13003019307F140030093234600F0BD
S1130950F5FF03461A46B7F8DE301343A7F8DE3036
S113096097F8E730013387F8E73097F8E730132B2F
S113097085D997F8DD30032B0BD0D7F8D830DB00BE
S113098097F8DD201146184601F070F80346A7F8E1
S1130990DE300A4B1B68002B00D1FAE700BF074B7F
S11309A01B681846EC37BD4690BD00BF403A0000B6
S11309B0100400000C000020A83B000000000020F0
S11309C03C000020300400002004000080B58EB0FC
S11309D000AFF860B9607A60002387F837301DE013
S11309E097F8373097F83720F9680A44127807F1F6
S11309F038010B4403F8242C97F83730103397F858
S1130A003720B9680A44127807F138010B4403F817
S1130A10242C97F83730013387F8373097F837307C
S1130A200F2BDDD907F1140002237A68022101F0AB
S1130A30EFF8034687F8363097F8363018463837DB
S1130A40BD4680BD90B5B9B002AFF860B96011463B
S1130A501A460B46FB711346BB7107F1C40300220F
S1130A601A605A609A60DA6007F1B40300221A60CF
S1130A705A609A60DA6007F1A40300221A605A608F
S1130A809A60DA6007F1940300221A605A609A604F
S1130A90DA6007F1840300221A605A609A60DA600F
S1130AA007F1740300221A605A609A60DA6007F151
S1130AB0540320220021184602F07EFF07F124038C
S1130AC030220021184602F077FFDC4B07F11404B2
S1130AD00FCB84E80F000023FB74002387F8D73082
S1130AE00023A7F8D43097F8EC3003F00803002B68
S1130AF010D007F1B40307F1130207F1C40107F1A1
S1130B00140000F0E9FF03461A46B7F8D430134343
S1130B10A7F8D430002387F8D73011E097F8D730FE
S1130B20D7F8F020134497F8D72007F1D8010A44E6
S1130B3012F8142C1A7097F8D730013387F8D7308D
S1130B4097F8D7300E2BE9D9D7F8F0300F33BA79AC
S1130B501201D1B2FA7902F00F02D2B20A43D2B230
S1130B601A7007F184031A46B549F868FFF72EFF97
S1130B7003469AB2B7F8D4301343A7F8D43007F138
S1130B808403184600F020FF03461A46B7F8D43011
S1130B901343A7F8D430D7F8E8301B0DDBB287F83D
S1130BA05430D7F8E8301B0BDBB287F85530D7F850
S1130BB0E8301B09DBB287F85630D7F8E830DBB2EF
S1130BC01B01DAB297F8EC301B09DBB21343DBB23A
S1130BD087F8573097F8EC301B01DBB287F85830B0
S1130BE0002387F8D7300DE097F8D730053307F1A5
S1130BF0D8021344002203F8842C97F8D730013329
S1130C0087F8D73097F8D7300A2BEDD9002387F827
S1130C10D73011E097F8D730103397F8D720B96858
S1130C200A44127807F1D8010B4403F8842C97F88E
S1130C30D730013387F8D73097F8D7300F2BE9D95D
S1130C4007F1740207F1540102230193D7F8F43039
S1130C500093134620220F2000F0DCFD03461A46C1
S1130C60B7F8D4301343A7F8D43007F184031A46F5
S1130C707449F868FFF7AAFE03469AB2B7F8D4306D
S1130C801343A7F8D43007F18403184600F09CFE00
S1130C9003461A46B7F8D4301343A7F8D4300023D8
S1130CA087F8D73011E097F8D73097F8D720D7F8DE
S1130CB0F0100A44127807F1D8010B4403F8B42C5D
S1130CC097F8D730013387F8D73097F8D7300F2B00
S1130CD0E9D9102387F8D73012E097F8D73097F87E
S1130CE0D720103AD7F8F4100A44127807F1D80143
S1130CF00B4403F8B42C97F8D730013387F8D73076
S1130D0097F8D7302F2BE8D907F124010223009359
S1130D10D7F8F8304FF4C0720F2000F0C3FD03463B
S1130D201A46B7F8D4301343A7F8D43007F1840334
S1130D301A464349B868FFF749FE03469AB2B7F822
S1130D40D4301343A7F8D43007F18403184600F0D5
S1130D503BFE03461A46B7F8D4301343A7F8D43001
S1130D60D7F8E8301B0DDBB287F89430D7F8E830B9
S1130D701B0BDBB287F89530D7F8E8301B09DBB2E0
S1130D8087F89630D7F8E830DBB21B01DBB243F0CA
S1130D900803DBB287F8973007F1740207F1940176
S1130DA00223019307F1A4030093134610220F209A
S1130DB000F030FD03461A46B7F8D4301343A7F8C1
S1130DC0D43007F1B40307F1130207F1C40107F1AA
S1130DD0140000F081FE03461A46B7F8D4301343DA
S1130DE0A7F8D430002387F8D73011E097F8D7302C
S1130DF0D7F8FC20134497F8D72007F1D8010A4408
S1130E0012F8142C1A7097F8D730013387F8D730BA
S1130E1097F8D7300E2BE9D9D7F8FC300F33BA79CD
S1130E201201D1B2FA7902F00F02D2B20A43D2B25D
S1130E301A70002387F8D73019E000BF503A000039
S1130E40603A0000703A000097F8D7301033D7F8B2
S1130E50FC20134497F8D72007F1D8010A4412F86C
S1130E60342C1A7097F8D730013387F8D73097F8B5
S1130E70D7300F2BE8D907F184031A461749B8680D
S1130E80FFF7A4FD03469AB2B7F8D4301343A7F88A
S1130E90D43007F18403184600F096FD03461A4641
S1130EA0B7F8D4301343A7F8D43002230093D7F80B
S1130EB000314FF48072D7F8FC100F2000F0F2FCE0
S1130EC003461A46B7F8D4301343A7F8D430B7F81A
S1130ED0D4301846DC37BD4690BD00BF703A0000E0
S1130EE090B5A1B002AFF860B9607A6007F154031D
S1130EF000221A605A609A60DA6007F14403002203
S1130F001A605A609A60DA60384B07F134040FCBE8
S1130F1084E80F000023A7F874300023FB74002337
S1130F2087F8773007F164031A463149F868FFF708
S1130F304DFD0346A7F8743007F16403184600F02A
S1130F4043FD0346A7F8743007F1440307F1130285
S1130F5007F1540107F1340000F0BEFD0346A7F881
S1130F607430002387F8773010E097F8773097F8DB
S1130F707720B9680A44127807F178010B4403F822
S1130F80642C97F87730013387F8773097F8773007
S1130F900F2BEAD913E097F8773097F87720103AB7
S1130FA007F178010A4412F8242C07F178010B4464
S1130FB003F8642C97F87730013387F8773097F883
S1130FC077301F2BE7D907F11401022300937B68C4
S1130FD0F8220F2000F066FC0346A7F87430B7F837
S1130FE0743018467C37BD4690BD00BF503A0000AF
S1130FF0803A000080B400AF044B1B680133034AFD
S1131000136000BFBD465DF8047B704704000020F8
S113101080B400AF034B1B681846BD465DF8047BE3
S1131020704700BF0400002080B500AFFFF7E2FF67
S113103000BF80BD80B582B000AF00233B600023B9
S1131040FB713A46FB791146184602F0D9FB034678
S1131050BB800B4B00221A60094A3B680949A1FB7B
S113106003139B0923F07F435360054B00229A60CE
S1131070034B07221A6000BF0837BD4680BD00BF7E
S113108010E000E0D34D621080B586B000AF786008
S1131090FFF7D0FFFFF7BCFF3861FFF7B9FFF86037
S11310A0FA683B69D31A7B617B68BB6006E0FFF793
S11310B0AFFFF860FA683B69D31A7B617A69BB6851
S11310C09A42F4D300BF1837BD4680BD80B500AF47
S11310D0FFF79EFF0346184680BD000080B483B02E
S11310E000AF0346FB800949B7F906305B09FA886B
S11310F002F01F02012000FA02F241F8232000BF8F
S11311000C37BD465DF8047B704700BF00E100E08A
S113111080B483B000AF78600B46FB70FB780F2B74
S113112072D801A252F823F0691100007311000073
S11311307D11000087110000911100009B11000037
S1131140A5110000AF110000B9110000C311000087
S1131150CD110000D7110000E1110000EB110000D7
S1131160F5110000FF1100007B684FF40022DA60E3
S11311704BE07B684FF0FF32DA6046E07B684FF06B
S1131180FF32DA6041E07B684FF0FF32DA603CE026
S11311907B684FF4E022DA6037E07B684FF0FF327F
S11311A0DA6032E07B684FF0FF32DA602DE07B6872
S11311B04FF0FF32DA6028E07B684FF0FF32DA60EC
S11311C023E07B684FF0FF32DA601EE07B684FF06B
S11311D0FF32DA6019E07B684FF0FF32DA6014E026
S11311E07B684FF0FF32DA600FE07B684FF0FF322C
S11311F0DA600AE07B684FF0FF32DA6005E07B6872
S11312004FF40022DA6000E000BF00BF0C37BD4697
S11312105DF8047B704700BF80B584B000AF786090
S113122039600023FB817B681A683B681A607B681D
S11312305A683B685A607B689A683B689A607B6826
S1131240DA683B681A617B681A693B689A610F4BDC
S1131250DB6C1B0BDBB203F00F037B737B7B194648
S11312603868FFF755FF3B68DB68B3F5002F04D2FD
S11312703B684FF480525A6102E03B6800225A6195
S1131280FB8918461037BD4680BD00BF008004406E
S113129080B584B000AF7860084611461A4603460C
S11312A0FB700B46BB7013467B70184B1B78DBB28C
S11312B05BB2002B02DB0223FB8121E0134B702283
S11312C01A70124B8022DA71104A7B7893710F4A9C
S11312D03B7E002B01D0012300E0002353710B4A15
S11312E03B7F83F00103DBB21371084AFB78D372AE
S11312F0064ABB789372786802F09EFB0346FB8132
S1131300FB8918461037BD4680BD00BF000002406F
S113131090B585B000AF03463960FB711346BB71CD
S11313200023FB7325E0214CFA79FB7B13449B10CB
S1131330FA7B39680A4412781106FA7B013238685C
S113134002441278120402F47F021143FA7B02323F
S1131350386802441278120292B20A43F97B0331CC
S11313603868014409780A4344F82320FB7B04339A
S1131370FB73FB7BDA1CBB799A42D4D30DE0FA7978
S1131380FB7B1344D8B2FB7B3A6813441B781946A1
S113139000F044F8FB7B0133FB73FA7BBB799A4280
S11313A0EDD300BF1437BD4690BD00BF001000143C
S11313B080B485B000AF03460A46FB711346BB8078
S11313C0154AFB799B08DBB252F82330FB60FB79AA
S11313D003F00203002B08D0FB681B0C1B04FB600A
S11313E0BB88FA681343FB6007E0FB689BB2FB60B1
S11313F0BB881B04FA681343FB60074AFB799B080C
S1131400DBB21946FB6842F8213000BF1437BD46F1
S11314105DF8047B704700BF0010001480B483B0F3
S113142000AF03460A46FB711346BB71FB7903F018
S11314300303032B2ED801A252F823F04D1400000D
S11314405F1400007114000083140000154AFB7936
S11314509B08DBB29B001344BA79DA701BE0114A93
S1131460FB799B08DBB29B001344BA799A7012E0B3
S11314700C4AFB799B08DBB29B001344BA795A707F
S113148009E0084AFB799B08DBB21946BB7902F8EC
S1131490213000E000BF00BF0C37BD465DF8047B7F
S11314A0704700BF0010001480B485B000AF03463D
S11314B03960FB711346BB710023FB73FB799B08F6
S11314C0BB730DE00B48BA7BFB7B1344FA7B9200A1
S11314D039680A44126840F82320FB7B0133FB730C
S11314E0FA7BBB799A42EDD300BF1437BD465DF851
S11314F0047B70470010001490B585B000AF03461C
S11315003960FB711346BB710023FB7328E0234948
S1131510FA79FB7B13449B1051F82330BB60FB7BAF
S11315203A681344BA68120ED2B21A70FB7B0133C4
S11315303A681344BA68120CD2B21A70FB7B0233B5
S11315403A681344BA68120AD2B21A70FB7B0333A6
S11315503A681344BA68D2B21A70FB7B0433FB7343
S1131560FB7BDA1CBB799A42D1D30EE0FB7B3A6851
S1131570D418FA79FB7B1344DBB2184600F010F858
S113158003462370FB7B0133FB73FA7BBB799A42DE
S1131590ECD300BF1437BD4690BD00BF001000144B
S11315A080B485B000AF0346FB710023FB73FB7965
S11315B003F00303032B2ED801A252F823F000BF3B
S11315C0D1150000E3150000F51500000716000012
S11315D0154AFB799B08DBB29B001344DB78FB7351
S11315E01AE0114AFB799B08DBB29B0013449B78F9
S11315F0FB7311E00C4AFB799B08DBB29B0013449C
S11316005B78FB7308E0084AFB799B08DBB212F8AD
S11316102330FB7300E000BFFB7B18461437BD4644
S11316205DF8047B704700BF0010001490B482B0D2
S113163000AF0446084611461A462346FB7103468A
S1131640BB710B467B7113463B710A49FB791A0641
S1131650BB791B0403F47F031A437B791B029BB2FF
S11316601A433B7913430B6000BF0837BD4690BC57
S1131670704700BF0010001480B483B000AF03466D
S1131680FB71064AFB799B08DBB252F823301846FB
S11316900C37BD465DF8047B704700BF0010001492
S11316A080B400AF00BF054B1B78DBB25BB2002BEC
S11316B0F9DA00BFBD465DF8047B704700000240C4
S11316C080B584B000AF0420FFF7D6FFB860BB68D4
S11316D01B0CFB80FB88202B34D0202B0DDC042B2F
S11316E024D0042B04DC012B19D0022B1AD041E0A6
S11316F0082B1FD0102B21D03CE0B3F5807F2DD0D8
S1131700B3F5807F04DC402B20D0802B22D031E045
S1131710B3F5007F26D0B3F5806F27D02AE00023ED
S1131720FB812AE040F20243FB8126E040F20343BE
S1131730FB8122E040F20443FB811EE040F20543BA
S1131740FB811AE040F20643FB8116E040F20743B6
S1131750FB8112E04FF48163FB810EE040F2094308
S1131760FB810AE040F20A43FB8106E040F20C43AD
S1131770FB8102E00123FB8100BFFB89184610377F
S1131780BD4680BD80B485B000AF0346FB710B4BF2
S11317905B78FB730949FB7B03F07F03DAB2FB79C7
S11317A0002B01D0802300E000231343DBB24B70F5
S11317B000BF1437BD465DF8047B7047000002404B
S11317C080B483B000AF786039603A687B681344B2
S11317D05A1E3B685B42134018460C37BD465DF801
S11317E0047B704780B582B000AF7860084A7B689C
S11317F01360074B1B6800221A701220FFF76EFC5F
S11318000020FFF741FC00BF0837BD4680BD00BF84
S11318100800002080B588B002AFB9607A603B60F0
S11318200346FB7300237B6100233B611C4B1B6855
S11318301B78002B01D002232DE0F87B7B680093FA
S11318403B6ABA68022100F073FA154B1B683A68C8
S1131850DA61FFF73BFC786100F038FB13E0FFF737
S11318601FFFFFF733FC38617A697B6A1A443B69CE
S11318709A4206D200F076FD094B1B6803225A8374
S113188006E000F077FC064B1B681B78002BE6D1C2
S1131890034B1B685B8B18461837BD4680BD00BFE1
S11318A00800002080B588B002AFB9607A603B6060
S11318B00346FB7300237B6100233B611E4B1B68C3
S11318C01B78002B01D0022332E008217868FFF74F
S11318D077FF0346DB08F87B00933B68BA68052171
S11318E000F026FA144B1B687A685A62FFF7EEFB85
S11318F0786100F057FB13E0FFF7D2FEFFF7E6FB39
S113190038617A693B6A1A443B699A4206D200F00C
S113191029FD094B1B6803225A8306E000F084FC6E
S1131920054B1B681B78002BE6D1034B1B685B8BB4
S113193018461837BD4680BD0800002080B586B023
S113194000AFB9607A603B600346FB731D4B1B68B4
S11319501B78002B01D0022330E01A4B1B680122B4
S11319601A701022B9681020FFF7D2FC202279687F
S11319702020FFF7CDFC102239684020FFF7C8FC77
S1131980FB7B002200210720FFF750FEFFF788FEB3
S1131990FFF796FE0346FB82FB8A002B09D1202227
S11319A0396A5020FFF7A8FD1022796A7020FFF7EA
S11319B0A3FD044B1B6800221A70FB8A18461837D3
S11319C0BD4680BD0800002080B584B000AF7860BB
S11319D0124B1B681B78002B01D0022319E00F4B1C
S11319E01B6801221A70102279681020FFF790FCFE
S11319F00F23002200210820FFF718FEFFF750FEF6
S1131A00FFF75EFE0346FB81044B1B6800221A703D
S1131A10FB8918461037BD4680BD00BF0800002072
S1131A2080B582B000AF104B1B681B78002B01D02F
S1131A30022314E00C4B1B6801221A7000230022BD
S1131A4000210A20FFF7F2FDFFF72AFEFFF738FE18
S1131A500346FB80044B1B6800221A70FB8818465F
S1131A600837BD4680BD00BF0800002080B584B0A3
S1131A7000AF78600B46FB70FB78FB73154B1B685B
S1131A801B78002B01D002231FE0124B1B6801229C
S1131A901A703B1D012219461C20FFF705FDFB7B34
S1131AA019461B20FFF7BAFC002300220021112055
S1131AB0FFF7BCFDFFF7F4FDFFF702FE0346BB8111
S1131AC0044B1B6800221A70BB8918461037BD46A8
S1131AD080BD00BF0800002080B586B000AFF8606C
S1131AE0B9607A603B601C4B1B681B78002B01D0EB
S1131AF002232DE0184B1B6801221A701022F9688A
S1131B001020FFF705FC0023002200211020FFF71E
S1131B108DFDFFF7C5FDFFF7D3FD0346FB82FB8A6E
S1131B20002B10D10F22B9682020FFF7E5FC2F20ED
S1131B30FFF736FD03461A467B681A70102239688F
S1131B403020FFF7D9FC044B1B6800221A70FB8A73
S1131B5018461837BD4680BD0800002080B584B003
S1131B6000AF7860134B1B681B78002B01D0022355
S1131B701CE0104B1B6801221A7000230022002174
S1131B801220FFF753FDFFF78BFDFFF799FD034686
S1131B90FB81FB89002B04D1102279681020FFF708
S1131BA0ABFC044B1B6800221A70FB8918461037E3
S1131BB0BD4680BD0800002080B584B000AF7860C9
S1131BC0124B1B681B78002B01D0022319E00F4B2A
S1131BD01B6801221A70102279681020FFF798FB05
S1131BE00023002200211320FFF720FDFFF758FDFA
S1131BF0FFF766FD0346FB81044B1B6800221A7045
S1131C00FB8918461037BD4680BD00BF0800002080
S1131C1080B58AB002AFF8607A603B600B467B8186
S1131C200023BB6100237B610023FB837B89BB838F
S1131C303E4B1B681B78002B01D0022372E07B898A
S1131C401B0100937B68FA681621002000F070F8ED
S1131C50FFF73CFAB86153E0BB8B072B02D8BB8B70
S1131C60DBB200E00723FB74FB7C1B01BB742F4B2E
S1131C701B68DB68FA681344BA7C19461020FFF726
S1131C8047FB7B8919460E20FFF792FB274B1B6805
S1131C9093F82020002300211620FFF7C7FCFFF74C
S1131CA0FFFCFFF713FA7861BA693B681A447B6951
S1131CB09A4203D200F056FB0323FB83FB8B002BD9
S1131CC003D1FFF7FDFC0346FB83FB8B002B1BD1E9
S1131CD0FB7C9BB2BA8BD31ABB83144B1B68134A8D
S1131CE01268D168BA7C0A44DA60104B1B6893F816
S1131CF02030002B04D10D4B1B68012283F82020D7
S1131D00BB8B002BA8D100E000BFFB8B002B04D1C0
S1131D10102279681020FFF7EFFB044B1B680022A8
S1131D201A70FB8B18462037BD4680BD0800002082
S1131D3080B485B000AFBA607B600346FB730B468A
S1131D40BB73154B1B6801221A70134B1B68BA7BBB
S1131D505A70114B1B68BA685A600F4B1B687A683B
S1131D609A600D4B1B68FA7B1A760B4B1B68BA6999
S1131D701A61094B1B680022DA60074B1B680022BA
S1131D805A83054B1B68002283F8202000BF1437B8
S1131D90BD465DF8047B70470800002080B582B022
S1131DA000AF284B1B78DBB223F07F03FB71FB7978
S1131DB0002B42D0244B1B681B78002B3DD0224BB8
S1131DC01B685B78013B052B1AD801A252F823F05B
S1131DD0E91D0000EF1D0000E91D0000EF1D0000DB
S1131DE0F51D0000FB1D000000F086F909E000F07D
S1131DF0C1F906E000F018FA03E000F057FA00E039
S1131E0000BF114B1B681B7883F00103DBB2002B6E
S1131E1013D00020FFF7B6FC0B4B1B689B6B002B09
S1131E200BD0094B1B689B6B074A1268527810460B
S1131E30054A1268D26B1146984700BF0837BD4661
S1131E4080BD00BF000002400800002080B582B0C1
S1131E5000AF1D4B1B681A691B4B1B68DB68D31A48
S1131E601B097B607B68072B02D87B689BB200E070
S1131E7007237B807B88DBB21B017B70124B1B68C2
S1131E805A68114B1B68DB6813447A781946102092
S1131E90FFF73EFA7B8819460E20FFF789FA0A4BB2
S1131EA01B687A785A61084B1B685878064B1B6884
S1131EB093F82020044B1B681B7E0021FFF7B6FB20
S1131EC000BF0837BD4680BD0800002080B584B03F
S1131ED000AF334B1B681A69314B1B68DB68D31A9C
S1131EE01B09BB60BB68072B02D8BB689BB200E030
S1131EF00723FB80FB88DBB21B01FB73284B1B68A9
S1131F0093F82030002B20D1BB68062B02D8BB6885
S1131F109BB200E00623FB80FB88DBB21B01FB7352
S1131F201F4B1B68DB69102219461020FFF7F0F9DC
S1131F301B4B1B685A681A4B1B68DB681344FA7BFB
S1131F4019462020FFF7E4F90BE0154B1B685A688B
S1131F50134B1B68DB681344FA7B19461020FFF708
S1131F60D7F90F4B1B681B691B099BB219460E203E
S1131F70FFF71EFA0A4B1B68FA7B5A61084B1B6871
S1131F805878074B1B6893F82020054B1B681B7E71
S1131F900021FFF74BFB00BF1037BD4680BD00BFDB
S1131FA00800002080B582B000AF1F4B1B681A697F
S1131FB01D4B1B68DB68D31A702B0AD81A4B1B689D
S1131FC01B69DAB2184B1B68DB68DBB2D31ADBB2CD
S1131FD000E07023FB71144B1B685A68124B1B689A
S1131FE0DB681344FA7919461020FFF791F90E4B78
S1131FF01B682433012219460C20FFF755FA0A4BBB
S11320001B68FA795A61084B1B685878064B1B68A1
S113201093F82020044B1B681B7E0021FFF706FB6E
S113202000BF0837BD4680BD0800002080B582B0DF
S113203000AF304B1B681A692E4B1B68DB68D31A40
S1132040702B0AD82B4B1B681B69DAB2294B1B680F
S1132050DB68DBB2D31ADBB200E07023FB71FB79DF
S113206010211846FFF7ACFB0346BB71214B1B68DC
S11320705A68204B1B68DB681344FA791946102010
S1132080FFF746F91B4B1B682433012219460C2029
S1132090FFF70AFA174B1B685B6B9BB219460820C3
S11320A0FFF786F9BB7910336F2B0ED8BB79103349
S11320B0D8B2104B1B681B6B10221946FFF728F986
S11320C00C4B1B68012283F82C200A4B1B68FA79FD
S11320D05A61084B1B685878064B1B6893F82020FC
S11320E0044B1B681B7E0021FFF7A0FA00BF0837D2
S11320F0BD4680BD0800002098B500AF1C4B1C688D
S1132100FFF7DEFA03466383194B1B685B8B002BD6
S113211004D0174B1B6800221A7028E0144B1B686C
S11321209A68134B1B68DB68D118114B1B685B69F9
S1132130DBB21A461020FFF7DFF90D4B1B680C4A7F
S11321401268D2680A4909684969C9B20A44DA605E
S1132150074B1B68DA68064B1B681B699A4204D359
S1132160034B1B6800221A7001E0FFF76FFE98BD55
S11321700800002098B500AF2A4B1C68FFF7A0FAAE
S113218003466383274B1B685B8B002B04D0254BD2
S11321901B6800221A7043E0224B1B6893F820301E
S11321A0002B14D11F4B1B689A681E4B1B68DB68FD
S11321B0D1181C4B1B685B69DBB21A462020FFF761
S11321C09BF9184B1B68012283F820200EE0154B65
S11321D01B689A68134B1B68DB68D118114B1B688A
S11321E05B69DBB21A461020FFF786F90D4B1B68BA
S11321F00C4A1268D2680B4909684969C9B20A4491
S1132200DA60084B1B68DA68064B1B681B699A4244
S113221004D3044B1B6800221A7001E0FFF756FE3A
S113222098BD00BF0800002098B500AF1E4B1C6885
S1132230FFF746FA034663831B4B1B685B8B002B3B
S113224004D0194B1B6800221A702CE0164B1B6833
S113225093F82030002B04D1134B1B68012283F820
S11322602020114B1B68104A1268D2680E49096875
S11322704969C9B20A44DA600B4B1B68DA680A4B35
S11322801B681B699A420CD3074B1B6800221A7007
S1132290054B1B689B68102219462020FFF72CF978
S11322A001E0FFF77FFE98BD0800002090B583B0E1
S11322B000AF2B4B1C68FFF703FA03466383284BDC
S11322C01B685B8B002B04D0254B1B6800221A7003
S11322D042E0234B1B6893F82030002B04D1204BA1
S11322E01B68012283F820201D4B1B681C4A1268BE
S11322F0D2681B4909684969C9B20A44DA60184BB3
S11323001B68174A126892F82C20002A14BF012275
S11323100022D2B282F00102D2B202F00102D2B2A1
S11323201A700F4B1B681B7883F00103DBB2002B80
S113233010D01420FFF7A0F97860094B1B689A6A43
S11323407B681B0C1B04002B0CBF01230023DBB296
S1132350137001E0FFF76AFE0C37BD4690BD00BF65
S11323600800002080B500AF164B1B681B78002BBB
S113237026D00020FFF706FAFFF792F9114B1B68ED
S11323805B78012B18D00F4B1B685B78032B13D0A1
S11323900C4B1B681A690B4B1B68DB689A420BD009
S11323A0084B1B685878074B1B681B7E00220021D2
S11323B0FFF73CF9FFF774F9024B1B6800221A700F
S11323C000BF80BD0800002080B483B000AF7860F7
S11323D07B681B691B0903F0030318460C37BD46D1
S11323E05DF8047B704780B485B000AF78607B688B
S11323F01B6CFB60FB681B0903F00103FB60FB68BB
S1132400002B14BF01230023DBB218461437BD464A
S11324105DF8047B704780B485B000AF78607B685A
S11324201B6CFB60FB68DB0803F00103FB60FB68CB
S1132430002B14BF01230023DBB218461437BD461A
S11324405DF8047B704780B485B000AF78607B682A
S11324501B6CFB60FB689B0803F00103FB60FB68DB
S1132460002B14BF01230023DBB218461437BD46EA
S11324705DF8047B704780B485B000AF78607B68FA
S11324801B6CFB60FB685B0803F00103FB60FB68EB
S1132490002B14BF01230023DBB218461437BD46BA
S11324A05DF8047B704780B485B000AF78607B68CA
S11324B01B6CFB60FB6803F00103FB60FB68002BF3
S11324C014BF01230023DBB218461437BD465DF860
S11324D0047B704780B483B000AF78607B681B686E
S11324E01B0EDBB2002B14BF01230023DBB2184602
S11324F00C37BD465DF8047B704780B483B000AFF1
S113250078607B681B6A03F08063002B14BF01238F
S11325100023DBB218460C37BD465DF8047B7047D8
S113252080B483B000AF78607B685B6A18460C3770
S1132530BD465DF8047B704780B483B000AF78601B
S11325407B68DB681B0E03F0030318460C37BD469B
S11325505DF8047B704780B483B000AF78607B681B
S1132560DB689B0E03F0030318460C37BD465DF889
S1132570047B704780B483B000AF78607B68DB680D
S11325801B0F03F0030318460C37BD465DF8047BAC
S1132590704780B483B000AF78607B68DB689B0FC2
S11325A003F0030318460C37BD465DF8047B7047FF
S11325B080B483B000AF78607B68DB681B0C03F0E9
S11325C0030318460C37BD465DF8047B704780B49E
S11325D083B000AF78607B68DB689B0C03F0030377
S11325E018460C37BD465DF8047B704780B483B051
S11325F000AF78607B68DB681B0D03F003031846AB
S11326000C37BD465DF8047B704780B483B000AFDF
S113261078607B68DB689B0D03F0030318460C3776
S1132620BD465DF8047B704780B483B000AF78602A
S11326307B681B6903F00203002B14BF01230023F2
S1132640DBB218460C37BD465DF8047B704780B496
S113265083B000AF78607B681B6903F00103002B33
S113266014BF01230023DBB218460C37BD465DF8C6
S1132670047B704780B483B000AF78607B681B69CB
S11326809B0803F0030318460C37BD465DF8047B32
S1132690704780B483B000AF78607B685B6803F4F4
S11326A00063002B14BF01230023DBB218460C3750
S11326B0BD465DF8047B704780B483B000AF78609A
S11326C07B685B681B0A03F0070318460C37BD469A
S11326D05DF8047B704780B483B000AF78607B689A
S11326E05B681B0903F00F0318460C37BD465DF801
S11326F0047B704780B483B000AF78607B681B6A4A
S11327001B0E03F00F0318460C37BD465DF8047B1F
S1132710704780B483B000AF78607B681B691B0E80
S113272003F00F0318460C37BD465DF8047B704771
S113273080B483B000AF78607B681B691B0C03F026
S11327400F0318460C37BD465DF8047B704780B410
S113275083B000AF78607B681B691B0903F00F032B
S113276018460C37BD465DF8047B704780B483B0CF
S113277000AF78607B681B6903F00F0318460C37C1
S1132780BD465DF8047B704780B483B000AF7860C9
S11327907B68D3F8043303F0070318460C37BD46AF
S11327A05DF8047B704780B483B000AF78607B68C9
S11327B0D3F804331B0A03F0070318460C37BD464D
S11327C05DF8047B704780B483B000AF78607B68A9
S11327D0D3F8043203F0070318460C37BD465DF8FE
S11327E0047B704780B483B000AF78607B68D3F813
S11327F004321B0A03F0070318460C37BD465DF884
S1132800047B704780B483B000AF78607B68D3F8F2
S1132810043103F0070318460C37BD465DF8047B0A
S1132820704780B483B000AF78607B68D3F804311C
S11328301B0A03F0070318460C37BD465DF8047BFA
S1132840704780B483B000AF78607B68D3F80436F7
S113285003F0070318460C37BD465DF8047B704748
S113286080B483B000AF78607B68D3F804361B0A69
S113287003F0070318460C37BD465DF8047B704728
S113288080B483B000AF78607B68D3F8003203F083
S11328908073002B14BF01230023DBB218460C37CE
S11328A0BD465DF8047B704780B483B000AF7860A8
S11328B07B68D3F8083203F0010318460C37BD4691
S11328C05DF8047B704780B483B000AF78607B68A8
S11328D0D3F8003303F08073002B14BF01230023CB
S11328E0DBB218460C37BD465DF8047B704780B4F4
S11328F083B000AF78607B68D3F8083303F0030338
S113290018460C37BD465DF8047B704780B483B02D
S113291000AF78607B68D3F8003103F08073002B3C
S113292014BF01230023DBB218460C37BD465DF803
S1132930047B704780B483B000AF78607B68D3F8C1
S1132940003603F08073002B14BF01230023DBB295
S113295018460C37BD465DF8047B704780B483B0DD
S113296000AF78607B68D3F808361B0A03F00703CE
S113297018460C37BD465DF8047B704780B483B0BD
S113298000AF78607B68D3F808361B0C03F01F0394
S113299018460C37BD465DF8047B704780B485B09B
S11329A000AF78600B46FB70FB780C4A32F81330AA
S11329B01A467B6853F82230FB60FB689B0F03F0D8
S11329C00103FB60FB68002B14BF01230023DBB26F
S11329D018461437BD465DF8047B7047903A0000F2
S11329E080B483B000AF78600B46FB70FB78084A74
S11329F032F813301A467B6853F822301B0E03F06A
S1132A00070318460C37BD465DF8047B704700BFCA
S1132A10903A000080B483B000AF78600B46FB703E
S1132A20FB78084A32F813301A467B6853F8223090
S1132A30DB0803F0010318460C37BD465DF8047B40
S1132A40704700BF903A000080B483B000AF786054
S1132A500B46FB70FB78074A32F813301A467B6842
S1132A6053F8223003F0070318460C37BD465DF8CF
S1132A70047B7047903A000080B485B000AF786062
S1132A807B689B78FB73FB7BDB09FB73FB7B002B75
S1132A900CBF01230023DBB218461437BD465DF892
S1132AA0047B704780B584B000AF03463960FB7186
S1132AB00023FB810023BB60FB79112B00F2838090
S1132AC001A252F823F000BF112B00001B2B0000C1
S1132AD0252B00002F2B0000372B00003F2B00007C
S1132AE0472B00004F2B0000572B00005F2B0000EA
S1132AF0672B0000732B00007F2B00008B2B000042
S1132B00972B0000A32B0000AF2B0000BB2B000071
S1132B10002000F0C5FCB86058E0012000F0C0FCC3
S1132B20B86053E0022000F0BBFCB8604EE000F057
S1132B30B7FBB8604AE000F0B9FDB86046E000F0C9
S1132B40D1FDB86042E000F099FDB8603EE000F0CD
S1132B50E7FDB8603AE0234B1B68BB6036E000F049
S1132B6029FCB86032E00021042000F0F9FCB860D0
S1132B702CE00121042000F0F3FCB86026E00021E1
S1132B80052000F0EDFCB86020E00121052000F0F4
S1132B90E7FCB8601AE00021062000F0E1FCB86010
S1132BA014E00121062000F0DBFCB8600EE00021F7
S1132BB0072000F0D5FCB86008E00121072000F0F0
S1132BC0CFFCB86002E00423FB8100BF3B68002B0C
S1132BD002D03B68BA681A60FB8918461037BD46B4
S1132BE080BD00BF2C00002080B582B000AF002360
S1132BF07B6000233B601348FFF77FFC0346002BF8
S1132C001AD01148FFF766FC0346002B05D00021BB
S1132C10052000F0A5FC786004E00021072000F006
S1132C209FFC78600848FFF77BFC38603B68013301
S1132C307A68B2FBF3F37B607B6818460837BD46BD
S1132C4080BD00BF008004400060074080B582B0B2
S1132C5000AF00237B60FFF7C7FF78607B685B08E9
S1132C607B607B6818460837BD4680BD80B582B05E
S1132C7000AF00237B6059210C48FFF78FFE034609
S1132C80002B0ED00A48FFF725FC0346002B04D086
S1132C90012000F005FC786003E0002000F000FC57
S1132CA078607B6818460837BD4680BD00500640F2
S1132CB00060074080B582B000AF00237B60FFF75F
S1132CC093FF78600648FFF705FC0346002B02D00B
S1132CD07B685B087B607B6818460837BD4680BD0F
S1132CE00060074080B582B000AF00237B600748D6
S1132CF0FFF7F0FB0346002B02D0FFF775FF786067
S1132D007B6818460837BD4680BD00BF0060074099
S1132D1080B586B000AF03463960FB710023FB82A7
S1132D2000233B61FB79153B162B00F2348101A291
S1132D3052F823F0912D0000AD2D0000C92D0000A4
S1132D40E52D0000012E00001D2E0000392E00008C
S1132D50552E0000712E0000792E0000812E0000F7
S1132D60972E0000BD2E0000E12E0000F52E00007D
S1132D700F2F0000292F0000432F00005D2F0000BB
S1132D80772F00007F2F0000872F00008F2F000077
S1132D909848FFF7D1FBF860FB68022B00F2FE8035
S1132DA0954AFB6852F823303B61F7E09148FFF7FE
S1132DB0D2FBF860FB68022B00F2F2808E4AFB68BB
S1132DC052F823303B61EBE08A48FFF7D3FBF8600D
S1132DD0FB68022B00F2E680874AFB6852F8233036
S1132DE03B61DFE08348FFF7D4FBF860FB68022B0C
S1132DF000F2DA80804AFB6852F823303B61D3E06A
S1132E007C48FFF7D5FBF860FB68022B00F2CE800C
S1132E10794AFB6852F823303B61C7E07548FFF7F5
S1132E20D6FBF860FB68022B00F2C280724AFB6892
S1132E3052F823303B61BBE06E48FFF7D7FBF860E4
S1132E40FB68022B00F2B6806B4AFB6852F8233011
S1132E503B61AFE06748FFF7D8FBF860FB68022BE3
S1132E6000F2AA80644AFB6852F823303B61A3E075
S1132E7000F016FA3861B2E000F0D6FA3861AEE03C
S1132E805E48FFF7F9FD0346002B00F0978000F041
S1132E9079FC386192E05948FFF7EEFD0346002BB8
S1132EA000F08E805348FFF7D2FB0346002B02D07C
S1132EB04FF47A7300E000233B6181E04F48FFF751
S1132EC0DBFD0346002B7DD04A48FFF7ADFB0346EC
S1132ED0002B02D04FF4FA4300E000233B6171E081
S1132EE04648FFF7C9FD0346002B6DD04FF4FA3373
S1132EF03B6169E03F48FFF776FA034683F001033C
S1132F00DBB2002B62D04FF48073FB825EE0394861
S1132F10FFF781FA034683F00103DBB2002B57D09D
S1132F204FF48073FB8253E03248FFF78CFA034678
S1132F3083F00103DBB2002B4CD04FF48073FB828F
S1132F4048E02C48FFF797FA034683F00103DBB20D
S1132F50002B41D04FF48073FB823DE02548FFF7FE
S1132F60A2FA034683F00103DBB2002B36D04FF400
S1132F708073FB8232E0FFF769FE38612FE0FFF7D0
S1132F8075FE38612BE0FFF795FE386127E0FFF707
S1132F90A9FE386123E00423FB8220E000BF1EE089
S1132FA000BF1CE000BF1AE000BF18E000BF16E03D
S1132FB000BF14E000BF12E000BF10E000BF0EE04D
S1132FC000BF0CE000BF0AE000BF08E000BF06E05D
S1132FD000BF04E000BF02E000BF00E000BF3B68A8
S1132FE0002B02D03B683A691A60FB8A18461837EE
S1132FF0BD4680BD008004403000002000D0074062
S113300080B584B000AF0346FB710023FB81FB79DC
S11330102C2B0ED9FB79392B0BD0FB793F2B08D005
S1133020FB79412B05D0FB794B2B02D0FB795A2B32
S113303002D10423FB8110E0FB7919460948FFF70C
S1133040ADFC034683F00103DBB2002B03D04FF445
S11330508073FB8101E00023FB81FB891846103754
S1133060BD4680BD0050064080B584B000AF034625
S11330703960FB710023FB810023BB60FB79184698
S1133080FFF7BEFF0346FB81FB89002B60D1FB7970
S1133090354AD35C03F02003002B0BD0012000F051
S11330A0FFF90346002B02D14FF4807300E00023A4
S11330B0FB8123E0FB792C4AD35C03F04003002B13
S11330C00BD0002000F0ECF90346002B02D14FF4A2
S11330D0807300E00023FB8110E0FB79224AD35C7B
S11330E05BB2002B0ADA022000F0DAF90346002B67
S11330F002D14FF4807300E00023FB81FB89002B95
S113310026D1FB79184AD35C03F01803002B1FD097
S1133110FB79154AD35C03F00803002B05D0FB7937
S11331200021184600F050F8B860FB790E4AD35CD1
S113313003F01003002B05D0FB790121184600F0A1
S113314043F8B860BB68002B02D14FF48073FB8155
S11331503B68002B02D03B68BA681A60FB891846AA
S11331601037BD4680BD00BF483B000080B584B029
S113317000AF03463960FB71FB79112B07D8FB794B
S113318039681846FFF78EFC0346FB8117E0FB798C
S11331902B2B07D8FB7939681846FFF7B9FD03468E
S11331A0FB810CE0FB795A2B07D8FB793968184668
S11331B0FFF75AFF0346FB8101E00423FB81FB89EF
S11331C018461037BD4680BD80B586B000AF0346B3
S11331D00A46FB711346BB7100237B61FB791946D8
S11331E02E48FFF717FC3861FB7919462B48FFF787
S11331F02BFCF8603A69FB689A424AD8FB79194675
S11332002648FFF7CBFB0346002B42D0FB79194637
S11332102248FFF7E5FB0346013B052B2AD801A210
S113322052F823F03D3200004B32000059320000C6
S1133230753200007532000067320000BB79194610
S1133240062000F08DF9786117E0BB791946042057
S113325000F086F9786110E0BB791946052000F08A
S11332607FF9786109E0BB791946072000F078F905
S1133270786102E000237B6100BFFB6801337A6957
S1133280B2FBF3F37B613B695A1C7B6902FB03F3DA
S11332907B617B6918461837BD4680BD00500640E7
S11332A080B582B000AF4248FFF7F3F90346002B24
S11332B077D03F48FFF70FFA03460F2B64D801A2DB
S11332C052F823F005330000893300000D33000069
S11332D089330000193300006933000025330000EE
S11332E0313300003B33000047330000513300000A
S11332F0713300005933000079330000613300005A
S11333008133000000F056F8786040E00121062087
S113331000F026F978603AE00121042000F020F959
S1133320786034E00121052000F01AF978602EE07D
S1133330002000F0B5F8786029E00121072000F0B2
S11333400FF9786023E0012000F0AAF878601EE00D
S11333504FF4FA337B601AE000F014FA786016E058
S113336000F062F8786012E0FFF770FC78600EE01D
S1133370FFF77CFC78600AE0FFF79CFC786006E0CD
S1133380FFF7B0FC786002E000237B6000BF0848D0
S1133390FFF792F9034601337A68B2FBF3F37B60DB
S11333A001E000237B607B6818460837BD4680BD7A
S11333B00080044080B582B000AF1A48FFF79AF944
S11333C00346062B25D801A252F823F0E933000066
S11333D0F3330000FB330000033400001334000017
S11333E0133400000B340000022000F059F8786018
S11333F012E000F043F978600EE000F057F97860CD
S11334000AE000F06FF9786006E000F089F978606E
S113341002E000237B6000BF7B6818460837BD4686
S113342080BD00BF0040064080B582B000AF1A489E
S1133430FEF7CAFF0346032B26D801A252F823F055
S1133440513400005D340000753400007D34000008
S11334500021062000F084F8786018E00E48FFF799
S1133460E3F80346002B02D04FF4FA4300E00023B4
S11334707B600CE0094B1B687B6008E000210520A1
S113348000F06EF8786002E000237B6000BF7B6888
S113349018460837BD4680BD008004402C0000203B
S11334A080B584B000AF0346FB712C48FFF731F9B7
S11334B00346013B052B1FD801A252F823F000BF9D
S11334C0D9340000E1340000E9340000F93400008C
S11334D0F9340000F134000000F0D0F8F8600EE098
S11334E000F0E4F8F8600AE000F0FCF8F86006E0A8
S11334F000F016F9F86002E00023FB6000BF1748F3
S1133500FFF716F903460133FA68B2FBF3F3FB60E5
S1133510FB79012B04D0022B0CD0002B17D013E025
S11335200E48FFF714F903460133FA68B2FBF3F3CC
S1133530FB600DE00948FFF719F903460133FA6807
S1133540B2FBF3F3FB6003E00023FB6000E000BF89
S1133550FB6818461037BD4680BD00BF00400640DA
S113356080B584B000AF03460A46FB711346BB71B5
S11335700023BB60BB79002B02D0012B34D067E061
S1133580FB79043B032B2BD801A252F823F000BF94
S1133590B1350000A1350000C1350000D13500006F
S11335A000F0A0F8F8603448FFF7EEF8B8601AE0CD
S11335B000F07CF8F8603048FFF705F9B86012E0D5
S11335C000F05CF8F8602C48FFF71CF9B8600AE0DA
S11335D000F0A6F8F8602848FFF733F9B86002E075
S11335E00023FB6000BF36E0FB79043B032B2BD8A0
S11335F001A252F823F000BF19360000093600007A
S1133600293600003936000000F06CF8F8601A48DA
S1133610FFF7C9F8B8601AE000F048F8F8601648F7
S1133620FFF7E0F8B86012E000F028F8F8601248FC
S1133630FFF7F7F8B8600AE000F072F8F8600E4897
S1133640FFF70EF9B86002E00023FB6000BF02E060
S11336500023FB6000BFBB68002B06D0BB68013BA6
S1133660FA6822FA03F3FB6001E00023FB60FB68C5
S113367018461037BD4680BD0040064080B582B074
S113368000AF0848FFF742F90346002B03D0064B6E
S11336901B687B6001E000237B607B681846083769
S11336A0BD4680BD004006402800002080B582B0A1
S11336B000AF00237B600948FFF7E2F80346002BC4
S11336C007D00648FFF7F0F80346002B01D0044B5F
S11336D07B607B6818460837BD4680BD00400640C5
S11336E000127A0080B582B000AF0B48FFF7EBF808
S11336F00346002B08D00848FFF7F9F80246074BA9
S113370053F822307B6001E000237B607B6818461D
S11337100837BD4680BD00BF00400640A43B000002
S113372080B582B000AF1648FFF704F90346002BBA
S11337301ED0FFF7A3FF78607B68002B15D01048DC
S1133740FFF70CF9034601337A68B2FBF3F37B60AD
S11337500B48FFF713F9034603F110027B6802FBE1
S113376003F37B607B685B087B607B683B6001E004
S113377000233B603B6818460837BD4680BD00BF48
S11337800040064080B582B000AF00237B601B4838
S1133790FEF770FF0346032B29D801A252F823F049
S11337A0B1370000B9370000BF370000D737000039
S11337B04FF4FA337B601BE000237B6018E00F4872
S11337C0FEF732FF0346002B02D04FF4FA4300E029
S11337D000237B600CE00948FEF726FF0346002B1C
S11337E002D04FF4FA4300E000237B6000E000BF06
S11337F07B6818460837BD4680BD00BF0080044082
S113380080B582B000AF03463960FB71FB7939683B
S11338101846FFF7ABFC034618460837BD4680BD83
S113382080B48FB000AF3A4B3B633A4B3B623A4BA8
S11338307B613A4BFB623A4BFB613A4B3B613A4B3F
S1133840BB623A4BFB603A4B7B623A4BBB613A4BEF
S1133850BB6009E03B6A1A783B6B1A703B6B01331F
S11338603B633B6A01333B627A693B6A9A42F1D11A
S113387009E0FB691A78FB6A1A70FB6A0133FB6280
S1133880FB690133FB613A69FB699A42F1D105E0B6
S1133890BB6A00221A70BB6A0133BB62FA68BB6A56
S11338A09A42F5D109E0BB691A787B6A1A70BB6940
S11338B00133BB617B6A01337B62BA68BB699A429C
S11338C0F1D10023FB711D4A1D4B9A4216D00023EF
S11338D07B630AE01A4A7B6B52F8232017497B6BFF
S11338E041F823207B6B01337B63164B9B087A6B77
S11338F09A42EFD3144B114A1A6002E0124B104A59
S11339001A6000BF3C37BD465DF8047B704700BFBA
S11339100004FE1FBC3B0000BC3B00000004FE1F73
S1133920BC3B0000183C0000000000207C0000208C
S113393000000020183C0000183C00000000FE1F9E
S1133940000000000004000008ED00E080B400AFB7
S11339504FF0E0224FF0E023D3F8883D43F47003A6
S1133960C2F8883D4FF0E0224FF0E023D3F8343F13
S113397023F08043C2F8343F0C4B0D4A5A600B4B82
S11339805B680A4B42F220121A60084B4FF6FF7232
S11339909A60084A074BD3F8003843F4F803C2F896
S11339A0003800BFBD465DF8047B70470020054029
S11339B020C528D900D0004010B5044600F002F814
S11339C0204610BD1F2A10B5CBB22CD9444214F0A6
S11339D0030405D0121B044400F8011BA042FBD1D0
S11339E02BB1190441EA0361194341EA0323510944
S11339F00ED000EB4111036043608360C360036138
S1133A00436183612030814240F8043CF3D108468D
S1133A10C2F3820129B100EB810140F8043B8842E2
S1133A20FBD102F0030222B1024400F8013B8242BE
S1133A30FBD110BD000000005FF800F00104FE1F80
S1133A40FFFFFFFFFFFFFFFFFFFFFFFFFFFFFFFF82
S1133A50000102030405060708090A0B0C0D0E0FEA
S1133A60010153484500800000000000000000B040
S1133A70010253484500800000000000000000B02F
S1133A80010353484500800000000000000000B01E
S1133A900000000000000000000000000000000022
S1133AA00000000000000000000000000000000012
S1133AB00000000000000000000000000000000002
S1133AC000000000000000000000000000000000F2
S1133AD000000000000000000000000000000000E2
S1133AE0000000000000000000007300320021000C
S1133AF0610049004A004B004C004D003D00540059
S1133B0055000000240025002B0036003100000081
S1133B10200000007900380039003A0026006E00C9
S1133B206F007000710000003B0027005A0066001F
S1133B30670037002C002D002E0040006A006B0047
S1133B406C0076000000000000000000000000008F
S1133B500000000000000000000000000000000061
S1133B60000000000000000000000041414141410C
S1133B7000000000002020202020202020202020E1
S1133B802000404040404000800056484848484893
S1133B904848480030303030303030303036303003
S1133BA030200000006CDC0200000000000018005F
S10F3BB00000001000000014FFFFFFFFE5
S1133BBC80B584B000AF78600023FB81124A124BAD
S1133BCC1B78DBB263F07F03DBB2137007E07B6816
S1133BDC9B69B3F1FF3F02D07B689B6998470A4B02
S1133BEC1B78DBB25BB2002BF1DA074B1B78DBB230
S1133BFC03F07103002B01D00123FB81FB891846D0
S10F3C0C1037BD4680BD00BF0000024020
S90306A155
