S01300005333324B313138463235362E7372656391
S113000000580020A1060000FD060000FD060000C7
S113001000000000000000000000000000000000DC
S1130020000000000000000000000000FD060000C9
S11300300000000000000000FD0600002113000085
S1130040FD060000FD060000FD060000FD060000A0
S1130050FD060000FD060000FD060000FD06000090
S1130060FD060000FD060000FD060000FD06000080
S1130070FD060000FD060000FD060000FD06000070
S1130080FD060000FD060000DD220000FD06000064
S1130090FD060000FD060000FD060000FD06000050
S11300A0FD060000FD060000FD060000FD06000040
S11300B0FD060000FD060000FD060000FD06000030
S1130400FFFFFFFFFFFFFFFFFFFFFFFFFE7FFFFF79
S113041000020403010103000000000100000000C9
S113042001010000010000000000000000000000C5
S1130430FFFFFFFFFFFFFFFFFFFFFFFFFFFFFFFFC8
S113044002000000010000000000000000000000A5
S1130450FFFFFFFFFFFFFFFFFFFFFFFFFFFFFFFFA8
S11304600300000001000000000000000000000084
S1130470FFFFFFFFFFFFFFFFFFFFFFFFFFFFFFFF88
S11304800400000001000000000000000000000063
S1130490FFFFFFFFFFFFFFFFFFFFFFFFFFFFFFFF68
S11304A00500000001000000000000000000000042
S11304B0FFFFFFFFFFFFFFFFFFFFFFFFFFFFFFFF48
S11304C00600000001000000000000000000000021
S11304D0FFFFFFFFFFFFFFFFFFFFFFFFFFFFFFFF28
S11304E00700000001000000000000000000000000
S11304F0FFFFFFFFFFFFFFFFFFFFFFFFFFFFFFFF08
S113050008000000010000000000000000000000DE
S1130510FFFFFFFFFFFFFFFFFFFFFFFFFFFFFFFFE7
S113052009000000010000000000000000000000BD
S1130530FFFFFFFFFFFFFFFFFFFFFFFFFFFFFFFFC7
S11305400A0000000100000000000000000000009C
S1130550FFFFFFFFFFFFFFFFFFFFFFFFFFFFFFFFA7
S11305600B0000000100000000000000000000007B
S1130570FFFFFFFFFFFFFFFFFFFFFFFFFFFFFFFF87
S11305800C0000000100000000000000000000005A
S1130590FFFFFFFFFFFFFFFFFFFFFFFFFFFFFFFF67
S11305A00D00000001000000000000000000000039
S11305B0FFFFFFFFFFFFFFFFFFFFFFFFFFFFFFFF47
S11305C01400000001000000000000000000000012
S11305D0FFFFFFFFFFFFFFFFFFFFFFFFFFFFFFFF27
S11305E015000000010000000000000000000000F1
S11305F0FFFFFFFFFFFFFFFFFFFFFFFFFFFFFFFF07
S113060016000000010000000000000000000000CF
S1130610FFFFFFFFFFFFFFFFFFFFFFFFFFFFFFFFE6
S113062017000000010000000000000000000000AE
S1130630FFFFFFFFFFFFFFFFFFFFFFFFFFFFFFFFC6
S1130640180000000100000000000000000000008D
S1130650FFFFFFFFFFFFFFFFFFFFFFFFFFFFFFFFA6
S1130660190000000100000000000000000000006C
S1130670FFFFFFFFFFFFFFFFFFFFFFFFFFFFFFFF86
S11306801A0000000100000000000000000000004B
S1130690FFFFFFFFFFFFFFFFFFFFFFFFFFFFFFFF66
S11306A072B610490F4A0F4B0E4C0E4D0D4E0D4FA6
S11306B0B846B946BA46BB46BC460B490B4A521A21
S11306C0013A05DD0020042308601944043AFBDAEA
S11306D007488546074880470748804762B600F0C8
S11306E09BF8FEE7000000000000002000580020F6
S11306F000580020D5390000AD380000FEE7C046A0
S1130700002243088B4274D303098B425FD3030A4C
S11307108B4244D3030B8B4228D3030C8B420DD35F
S1130720FF22090212BA030C8B4202D312120902ED
S113073065D0030B8B4219D300E0090AC30B8B422B
S113074001D3CB03C01A5241830B8B4201D38B03D9
S1130750C01A5241430B8B4201D34B03C01A52417E
S1130760030B8B4201D30B03C01A5241C30A8B42C1
S113077001D3CB02C01A5241830A8B4201D38B02AC
S1130780C01A5241430A8B4201D34B02C01A524150
S1130790030A8B4201D30B02C01A5241CDD2C309C2
S11307A08B4201D3CB01C01A524183098B4201D33E
S11307B08B01C01A524143098B4201D34B01C01A29
S11307C0524103098B4201D30B01C01A5241C308A1
S11307D08B4201D3CB00C01A524183088B4201D310
S11307E08B00C01A524143088B4201D34B00C01AFC
S11307F05241411A00D20146524110467047FFE768
S113080001B5002000F006F802BDC0460029F7D06B
S113081076E770477047C046B0B5C2B008AFDE2374
S1130820FB1800221A80DD23FB1800221A70002313
S1130830D822BA181360D723FB1800221A70202379
S1130840FB18B74A13CA13C312681A600023E022C4
S1130850BA1813601023FB18180010231A00002183
S113086003F0D0F83B00180010231A00002103F015
S1130870C9F8D623FB18AB4A52781A70D523FB1853
S1130880A84A92781A70D423FB18A64AD2781A7010
S1130890A44B1A79D323FB18511E8A411A70A14B19
S11308A05A79D223FB18511E8A411A70DD23FB1892
S11308B09C4A92791A709B4BDB791A06994B1B7AE6
S11308C01B041A43974B5B7A1B021343954A927A93
S11308D01343D822BA181360D723FB18914AD27A4B
S11308E01A70914A914B1100180000F0FDFD8E4BD7
S11308F05B69002B1AD1D723FB181B78002B15D169
S1130900D423FB181C78D523FB181A78D623FB189C
S113091019788548D223FB181B780193D323FB183D
S11309201B780093230000F025FE0BE07E4B5B69EF
S1130930002B07D1D723FB181B78012B02D17C4B4A
S11309401B68E8E07B4B180001F06EF901F0AEFA89
S1130950D723FB181B78012B2BD11023FB1818006D
S113096001F058FB03001900DE23FB18DE22BA183D
S113097012880A431A803A001023F9186E4B1800A3
S113098000F01CFC03001900DE23FB18DE22BA1859
S113099012880A431A803B00180001F071FB03001F
S11309A01900DE23FB18DE22BA1812880A431A80C3
S11309B0A9E0D723FB181B78002B00D0A3E0E72382
S11309C0FB1800221A7084E0E723FB181B785B4AAB
S11309D05B01D31801331B78012B73D1E723FB1878
S11309E01A78564B5201D35C012B05D12023FB18F6
S11309F0E022BA18136003E04F4BE022BA181360E8
S1130A00DE23FB1800221A80E723FB181B785B0106
S1130A1010331A00494BD418E723FB181A78474BB4
S1130A205201D55CE723FB181B78444A5B01D318B9
S1130A3004331B68E722BA181278404952018A1815
S1130A4002321278E0217918086860217918069139
S1130A50702179180591902179180491A0217918B1
S1130A600391C02179180291019200932B00012275
S1130A70210000F0A9F803001900DE23FB18DE2290
S1130A80BA1812880A431A80E723FB181A782B4BEA
S1130A905201D05C9023FC18A023FA18C023F91843
S1130AA03023FB1801934023FB180093230001F02B
S1130AB077F903001900DE23FB18DE22BA18128826
S1130AC00A431A80E723FB181A78E723FB1801323C
S1130AD01A70E723FB181B78132B00D874E7DD2367
S1130AE0FB181B78032B0ED0D823FB181B68DA00E5
S1130AF0DE23FC18DD23FB181B781900100001F01D
S1130B00FDF9030023800A4B1B68002B00D1FAE790
S1130B10C046074B1B681800BD463AB0B0BDC0467E
S1130B20A83A000010040000CC300020DC3C000097
S1130B30C0300020FC3000203004000020040000FD
S1130B4080B58EB000AFF860B9607A603723FB18C7
S1130B5000221A701FE03723FB181B783722BA18BB
S1130B601278F9688A1811781422BA18D1543723E4
S1130B70FB181B7810333722BA181278B9688A1810
S1130B8011781422BA18D1543723FB181A78372352
S1130B90FB1801321A703723FB181B780F2BDAD994
S1130BA07A681423F8180223022101F099FA030049
S1130BB01A003623FB181A703623FB181B7818000A
S1130BC0BD460EB080BD000090B5B9B002AFF8606C
S1130BD0B9601900FB1D1A70BB1D0A1C1A70C423CE
S1130BE0FB18180010231A00002102F00BFFB42395
S1130BF0FB18180010231A00002102F003FFA4239D
S1130C00FB18180010231A00002102F0FBFE9423A5
S1130C10FB18180010231A00002102F0F3FE8423AD
S1130C20FB18180010231A00002102F0EBFE7423B5
S1130C30FB18180010231A00002102F0E3FE5423CD
S1130C40FB18180020231A00002102F0DBFE2423E5
S1130C50FB18180030231A00002102F0D3FE1423DD
S1130C60FB18AC4A13CA13C312681A601323FB1887
S1130C7000221A70D723FB1800221A70D423FB1801
S1130C8000221A80E42308229446BC4463441B785F
S1130C900822134012D0B423FB181322BA18C4211B
S1130CA079181420381801F069F903001900D423C5
S1130CB0FB18D422BA1812880A431A80D723FB18C7
S1130CC000221A7017E0D723FB181B78E8220821AA
S1130CD08C46BC4462441268D318D722BA181278DE
S1130CE0C42179188A5C1A70D723FB181A78D72381
S1130CF0FB1801321A70D723FB181B780E2BE2D98C
S1130D00E82308229446BC4463441B680F33BA1D8D
S1130D1012781201D1B2FA1D12780F200240D2B219
S1130D200A43D2B21A708423FA187B49FB6818006C
S1130D30FFF706FF030099B2D423FB18D422BA1894
S1130D4012880A431A808423FB18180001F07EF8E5
S1130D5003001900D423FB18D422BA1812880A43BA
S1130D601A80E02308229446BC4463441B681B0D8C
S1130D70DAB25423FB181A70E02308229446BC44C8
S1130D8063441B681B0BDAB25423FB185A70E0232C
S1130D9008229446BC4463441B681B09DAB25423FA
S1130DA0FB189A70E02308229446BC4463441B68F1
S1130DB0DBB21B01DAB2E42308218C46BC44634451
S1130DC01B781B09DBB21343DAB25423FB18DA7025
S1130DD0E42308229446BC4463441B781B01DAB222
S1130DE05423FB181A71D723FB1800221A700EE043
S1130DF0D723FB181B7805335422BA180021D15489
S1130E00D723FB181A78D723FB1801321A70D7237B
S1130E10FB181B780A2BEBD9D723FB1800221A7076
S1130E2013E0D723FB181B781033D722BA18127893
S1130E30B9688A1811785422BA18D154D723FB18E8
S1130E401A78D723FB1801321A70D723FB181B78A2
S1130E500F2BE6D97423FA185423F91802230193AB
S1130E60EC2308208446BC4463441B6800931300AD
S1130E7020220F2000F0F0FE03001900D423FB18F9
S1130E80D422BA1812880A431A808423FA182349F0
S1130E90FB681800FFF754FE030099B2D423FB1833
S1130EA0D422BA1812880A431A808423FB18180023
S1130EB000F0CCFF03001900D423FB18D422BA1885
S1130EC012880A431A80D723FB1800221A7017E0ED
S1130ED0D723FB181B78D722BA181278E8210820E8
S1130EE08446BC44614409688A1811782422BA18DB
S1130EF0D154D723FB181A78D723FB1801321A7060
S1130F00D723FB181B780F2BE2D9D723FB18102209
S1130F101A701EE0B83A0000C83A0000D83A00003F
S1130F20D723FB181B78D722BA181278103AEC2171
S1130F3008208446BC44614409688A181178242234
S1130F40BA18D154D723FB181A78D723FB180132C7
S1130F501A70D723FB181B782F2BE1D9F023082212
S1130F609446BC4463441868C0235A002423F918E7
S1130F700223009303000F2000F0BCFE03001900BD
S1130F80D423FB18D422BA1812880A431A80842363
S1130F90FA188849BB681800FFF7D2FD030099B21C
S1130FA0D423FB18D422BA1812880A431A80842343
S1130FB0FB18180000F04AFF03001900D423FB18A3
S1130FC0D422BA1812880A431A80E02308229446CD
S1130FD0BC4463441B681B0DDAB29423FB181A70DB
S1130FE0E02308229446BC4463441B681B0BDAB21A
S1130FF09423FB185A70E02308229446BC446344AB
S11310001B681B09DAB29423FB189A70E0230822A8
S11310109446BC4463441B68DBB21B01DBB2082268
S11310201343DAB29423FB18DA707423FA18942366
S1131030F91802230193A423FB1800931300102230
S11310400F2000F009FE03001900D423FB18D4225A
S1131050BA1812880A431A80B423FB181322BA1848
S1131060C42179181420381800F088FF03001900EF
S1131070D423FB18D422BA1812880A431A80D7231F
S1131080FB1800221A7017E0D723FB181B78F422F0
S113109008218C46BC4462441268D318D722BA187B
S11310A01278C42179188A5C1A70D723FB181A782D
S11310B0D723FB1801321A70D723FB181B780E2B89
S11310C0E2D9F42308229446BC4463441B680F33DA
S11310D0BA1D12781201D1B2FA1D12780F20024003
S11310E0D2B20A43D2B21A70D723FB1800221A7064
S11310F018E0D723FB181B781033F42208218C4600
S1131100BC4462441268D318D722BA181278A421B6
S113111079188A5C1A70D723FB181A78D723FB181E
S113112001321A70D723FB181B780F2BE1D98423C3
S1131130FA182149BB681800FFF702FD030099B2B1
S1131140D423FB18D422BA1812880A431A808423A1
S1131150FB18180000F07AFE03001900D423FB18D2
S1131160D422BA1812880A431A80F8230822944613
S1131170BC446344186880235A00F42308218C4635
S1131180BC44634419680223009303000F2000F059
S1131190B1FD03001900D423FB18D422BA18128815
S11311A00A431A80D423FB181B881800BD4637B0A5
S11311B090BDC046C83A0000D83A000090B5A1B02E
S11311C002AFF860B9607A605423FB18180010234A
S11311D01A00002102F016FC4423FB181800102307
S11311E01A00002102F00EFC3423FB183F4A13CAF4
S11311F013C312681A607423FB1800221A80132385
S1131200FB1800221A707723FB1800221A7064233B
S1131210FA183749FB681800FFF792FC03001A001C
S11312207423FB181A807423FC186423FB18180019
S113123000F00CFE030023807423FC184423FB18E5
S11312401322BA18542179183420381800F096FE65
S1131250030023807723FB1800221A7012E07723FF
S1131260FB181B787722BA181278B9688A18117893
S11312701422BA18D1547723FB181A787723FB1851
S113128001321A707723FB181B780F2BE7D913E070
S11312907723FB181B787722BA181278103A542156
S11312A07918895C1422BA18D1547723FB181A7858
S11312B07723FB1801321A707723FB181B781F2B36
S11312C0E6D97423FC187A681423F91802230093CE
S11312D01300F8220F2000F00DFD03002380742377
S11312E0FB181B881800BD461FB090BDB83A00001B
S11312F0E83A000080B500AF034B1B685A1C024B50
S11313001A60C046BD4680BDC430002080B500AF21
S1131310024B1B681800BD4680BDC046C430002087
S113132080B500AFFFF7E6FFC046BD4680BD0000B4
S113133090B583B000AF00233B60FB1D00221A7000
S11313403C1D3A00FB1D1B781100180002F09AFAAC
S1131350030023800B4B00221A600A4C3A68FA23DC
S113136099001000FFF7CCF903001B021B0A63600D
S1131370044B00229A60034B07221A60C046BD4604
S113138003B090BD10E000E080B586B000AF786097
S1131390FFF7CEFFFFF7BAFF03003B61FFF7B6FF8D
S11313A00300FB60FA683B69D31A7B617B68BB600E
S11313B007E0FFF7ABFF0300FB60FA683B69D31A51
S11313C07B617A69BB689A42F3D3C046BD4606B0D6
S11313D080BD80B500AFFFF799FF03001800BD463C
S11313E080BD000080B582B000AF0200FB1D1A7002
S11313F00949FB1D1B785BB25B09FA1D12781000CA
S11314001F2202400120904002009B005A50C04617
S1131410BD4602B080BDC04600E100E080B582B0A8
S113142000AF78600A00FB1C1A70FB1C1B780F2BA2
S113143052D89A002B4BD3181B689F467B68802296
S11314401202DA6049E07B6801225242DA6044E029
S11314507B6801225242DA603FE07B680022DA6056
S11314603BE07B6801225242DA6036E07B6801226D
S11314705242DA6031E07B6801225242DA602CE0A9
S11314807B6801225242DA6027E07B680022DA603E
S113149023E07B6880229201DA601EE07B680122EF
S11314A05242DA6019E07B6880221202DA6014E0AA
S11314B07B6801225242DA600FE07B6801225242CB
S11314C0DA600AE07B6801225242DA6005E07B6858
S11314D080221202DA6000E0C046C046BD4602B077
S11314E080BDC046F83A000080B584B000AF786093
S11314F039600E23FB1800221A807B681A683B6847
S11315001A607B685A683B685A607B689A683B68D3
S11315109A607B68DA683B681A617B681A693B6881
S11315209A61124BDB6C1B0BDAB20D23FB180F21F3
S11315300A401A700D23FB181A783B681100180032
S1131540FFF76CFF3B68DB68094A934204D83B68A9
S1131550802212015A6102E03B6800225A610E2384
S1131560FB181B881800BD4604B080BD00800440F1
S1131570FF7F000090B585B000AF78600C001000CC
S11315801900FB1C221C1A70BB1C021C1A707B1C49
S11315900A1C1A701E4B1B78DBB25BB2002B04DBF7
S11315A00E23FB1802221A802BE0194B70221A70AA
S11315B0174B8022DA71164A7B1C1B789371144AEC
S11315C02023FB181B78002B01D0012300E000230B
S11315D053710F4A2423FB181B7801214B40DBB2C3
S11315E013710B4AFB1C1B78D372094ABB1C1B7872
S11315F093720E23FC187B68180002F04DFA030066
S113160023800E23FB181B881800BD4605B090BD2F
S11316100000024090B585B000AF39601100FB1D99
S1131620021C1A70BB1D0A1C1A700F23FB1800221F
S11316301A7036E0304CFB1D1A780F23FB181B7808
S1131640D3189B100F22BA18127839688A181278A6
S113165011060F22BA1812780132386882181278EB
S11316601004FF221204024011430F22BA18127808
S1131670023238688218127812021204120C0A43D9
S11316800F217918097803313868411809780A4319
S11316909B001A510F23FB180F22BA181278043238
S11316A01A700F23FB181B78DA1CBB1D1B789A4297
S11316B0C0D316E0FA1D0F23FB1812781B78D31839
S11316C0D8B20F23FB181B783A68D3181B7819007B
S11316D000F04CF80F23FB181A780F23FB18013283
S11316E01A700F23FA18BB1D12781B789A42E1D3A3
S11316F0C046BD4605B090BD0008001480B584B056
S113170000AF0200FB1D1A703B1D0A1C1A80164A0A
S1131710FB1D1B789B08DBB29B009B58FB60FB1DE9
S11317201B780222134009D0FB681B0C1B04FB60CE
S11317303B1D1B88FA681343FB6009E0FB681B042C
S11317401B0CFB603B1D1B881B04FA681343FB60E6
S11317500549FB1D1B789B08DBB29B00FA685A50B5
S1131760C046BD4604B080BD0008001480B582B0F8
S113177000AF0200FB1D1A70BB1D0A1C1A70FB1D72
S11317801B7803221340012B11D004D3022B1AD04F
S1131790032B24D02DE0194AFB1D1B789B08DBB2D8
S11317A09B00D3180333BA1D12781A7021E0134A30
S11317B0FB1D1B789B08DBB29B00D3180233BA1DB8
S11317C012781A7015E00D4AFB1D1B789B08DBB2DA
S11317D09B00D3180133BA1D12781A7009E0074927
S11317E0FB1D1B789B08DBB29B00BA1D12785A5470
S11317F0C046C046BD4602B080BDC04600080014C5
S113180080B584B000AF39601100FB1D021C1A7052
S1131810BB1D0A1C1A700F23FB1800221A700E231A
S1131820FB18FA1D127892081A7017E011480E235B
S1131830FB181A780F23FB181B78D1180F23FB18F9
S11318401B789B003A68D3181A688B001A500F2330
S1131850FB181A780F23FB1801321A700F23FA1899
S1131860BB1D12781B789A42E0D3C046BD4604B033
S113187080BDC0460008001490B585B000AF396043
S11318801100FB1D021C1A70BB1D0A1C1A700F23C9
S1131890FB1800221A7037E03149FB1D1A780F2318
S11318A0FB181B78D3189B109B005B58BB600F235D
S11318B0FB181B783A68D318BA68120ED2B21A70A1
S11318C00F23FB181B7801333A68D318BA68120C3B
S11318D0D2B21A700F23FB181B7802333A68D3185C
S11318E0BA68120AD2B21A700F23FB181B7803339A
S11318F03A68D318BA68D2B21A700F23FB180F22B1
S1131900BA18127804321A700F23FB181B78DA1CE9
S1131910BB1D1B789A42BFD317E00F23FB181B781B
S11319203A68D418FA1D0F23FB1812781B78D318C1
S1131930DBB2180000F016F8030023700F23FB1825
S11319401A780F23FB1801321A700F23FA18BB1DE3
S113195012781B789A42E0D3C046BD4605B090BDCC
S11319600008001480B584B000AF0200FB1D1A709B
S11319700F23FB1800221A70FB1D1B78032213404F
S1131980012B13D004D3022B1ED0032B2AD035E015
S11319901E49FB1D1B789B08DBB21A000F23FB18A2
S11319A092008A18033212781A7027E01749FB1D37
S11319B01B789B08DBB21A000F23FB1892008A18CD
S11319C0023212781A7019E01049FB1D1B789B082B
S11319D0DBB21A000F23FB1892008A180132127826
S11319E01A700BE00949FB1D1B789B08DBB21A0037
S11319F00F23FB189200525C1A70C0460F23FB1889
S1131A001B781800BD4604B080BDC0460008001411
S1131A10B0B582B000AF05000C0010001900FB1D2A
S1131A202A1C1A70BB1D221C1A707B1D021C1A7002
S1131A303B1D0A1C1A700C4BFA1D12781106BA1DB4
S1131A4012781004FF221204024011437A1D127806
S1131A5012021204120C11433A1D12780A431A603E
S1131A60C046BD4602B0B0BD0008001480B582B0C7
S1131A7000AF0200FB1D1A70054AFB1D1B789B0872
S1131A80DBB29B009B581800BD4602B080BDC04627
S1131A900008001480B500AFC046044B1B78DBB2CD
S1131AA05BB2002BF9DAC046BD4680BD000002409F
S1131AB080B584B000AF0420FFF7D8FF0300BB60FB
S1131AC0BB681A0CBB1D1A80BB1D1B88202B3CD085
S1131AD00CDC042B2AD004DC012B1DD0022B20D0DB
S1131AE052E0082B27D0102B2AD04DE08022520040
S1131AF093423AD080225200934204DC402B29D0F6
S1131B00802B2CD040E080229200934232D080225D
S1131B10D200934233D037E00E23FB1800221A8000
S1131B2037E00E23FB181E4A1A8032E00E23FB18FE
S1131B301C4A1A802DE00E23FB181B4A1A8028E049
S1131B400E23FB18194A1A8023E00E23FB18184AA7
S1131B501A801EE00E23FB18164A1A8019E00E2381
S1131B60FB188122D2001A8013E00E23FB18124ABC
S1131B701A800EE00E23FB18104A1A8009E00E2387
S1131B80FB180F4A1A8004E00E23FB1801221A8066
S1131B90C0460E23FB181B881800BD4604B080BD48
S1131BA00204000003040000040400000504000013
S1131BB00604000007040000090400000A040000F1
S1131BC00C04000080B584B000AF0200FB1D1A7045
S1131BD00C4A0F23FB1852781A700A490F23FB187A
S1131BE01B787F221340DAB2FB1D1B78002B01D037
S1131BF0802300E000231343DBB24B70C046BD4694
S1131C0004B080BD0000024080B582B000AF7860AF
S1131C1039603A687B68D318013B3A6852421340F2
S1131C201800BD4602B080BD80B582B000AF7860B8
S1131C30084B7A681A60074B1B6800221A7012203E
S1131C40FFF7D0FB0020FFF79FFBC046BD4602B064
S1131C5080BDC046C830002080B588B002AFB960EE
S1131C607A603B600F23FB18021C1A7000237B610F
S1131C7000233B611E4B1B681B78002B01D0022301
S1131C8032E0396ABA680F23FB1818787B6800932E
S1131C900B00022100F0E6FA154B1B683A68DA6182
S1131CA0FFF797FB03007B6100F0AEFB14E0FFF746
S1131CB0F1FEFFF78EFB03003B617A697B6AD21861
S1131CC03B699A4206D200F007FE094B1B680322C7
S1131CD05A8306E000F008FD054B1B681B78002BB7
S1131CE0E5D1034B1B685B8B1800BD4606B080BD75
S1131CF0C830002090B589B002AFB9607A603B600B
S1131D000F23FB18021C1A7000237B6100233B6124
S1131D10224B1B681B78002B01D0022339E07B681F
S1131D2008211800FFF770FF0300DB083C68B9685E
S1131D300F22BA181078009323000A00052100F03E
S1131D4091FA164B1B687A685A62FFF742FB03004C
S1131D507B6100F0D3FB14E0FFF79CFEFFF739FB37
S1131D6003003B617A69BB6AD2183B699A4206D286
S1131D7000F0B2FD094B1B6803225A8306E000F011
S1131D800DFD064B1B681B78002BE5D1034B1B682C
S1131D905B8B1800BD4607B090BDC046C83000201C
S1131DA090B587B000AFB9607A603B600F23FB1831
S1131DB0021C1A70244B1B681B78002B01D00223D1
S1131DC03DE0214B1B6801221A70BB6810221900E8
S1131DD01020FFF71FFC7B68202219002020FFF74A
S1131DE019FC3B68102219004020FFF713FC0F2355
S1131DF0FB181B78002200210720FFF709FEFFF7DC
S1131E0049FE1623FC18FFF753FE03002380162314
S1131E10FB181B88002B0BD1BB6A20221900502011
S1131E20FFF72AFDFB6A102219007020FFF724FD3A
S1131E30054B1B6800221A701623FB181B88180018
S1131E40BD4607B090BDC046C830002090B585B0EF
S1131E5000AF7860144B1B681B78002B01D0022361
S1131E601EE0114B1B6801221A707B6810221900B6
S1131E701020FFF7CFFB0F23002200210820FFF7DB
S1131E80C7FDFFF707FE0E23FC18FFF711FE030042
S1131E902380054B1B6800221A700E23FB181B8835
S1131EA01800BD4605B090BDC830002090B583B081
S1131EB000AF114B1B681B78002B01D0022316E0E6
S1131EC00D4B1B6801221A700023002200210A20F6
S1131ED0FFF79EFDFFF7DEFDBC1DFFF7E9FD0300E4
S1131EE02380054B1B6800221A70BB1D1B88180039
S1131EF0BD4603B090BDC046C830002090B585B043
S1131F0000AF78600A00FB1C1A700F23FB18FA1C40
S1131F1012781A70184B1B681B78002B01D002230F
S1131F2025E0154B1B6801221A703B1D0122190084
S1131F301C20FFF765FC0F23FB181B7819001B20DE
S1131F40FFF714FC0023002200211120FFF760FD9D
S1131F50FFF7A0FD0C23FC18FFF7AAFD0300238064
S1131F60054B1B6800221A700C23FB181B881800F1
S1131F70BD4605B090BDC046C830002090B587B0BE
S1131F8000AFF860B9607A603B60214B1B681B7836
S1131F90002B01D0022336E01D4B1B6801221A706E
S1131FA0FB68102219001020FFF734FB00230022E5
S1131FB000211020FFF72CFDFFF76CFD1623FC1801
S1131FC0FFF776FD030023801623FB181B88002BE4
S1131FD012D1BB680F2219002020FFF74DFC2F20DF
S1131FE0FFF7C0FC03001A007B681A703B681022DC
S1131FF019003020FFF740FC054B1B6800221A70C3
S11320001623FB181B881800BD4607B090BDC046B8
S1132010C830002090B585B000AF7860174B1B68BE
S11320201B78002B01D0022323E0144B1B680122F0
S11320301A700023002200211220FFF7E9FCFFF7A9
S113204029FD0E23FC18FFF733FD030023800E2324
S1132050FB181B88002B05D17B6810221900102067
S1132060FFF70AFC054B1B6800221A700E23FB18AD
S11320701B881800BD4605B090BDC046C83000207E
S113208090B585B000AF7860144B1B681B78002BAB
S113209001D002231EE0114B1B6801221A707B68D9
S11320A0102219001020FFF7B5FA002300220021A6
S11320B01320FFF7ADFCFFF7EDFC0E23FC18FFF730
S11320C0F7FC03002380054B1B6800221A700E23C3
S11320D0FB181B881800BD4605B090BDC830002011
S11320E090B58BB002AFF8607A603B600A23FB18AE
S11320F00A1C1A800023BB6100237B611E23FB188A
S113210000221A801C23FB180A22BA1812881A808B
S1132110534B1B681B78002B01D002239CE00A233D
S1132120FB181B881B017968FA6800930B001621C1
S1132130002000F097F8FFF74CF90300BB6172E050
S11321401C23FB181B88072B04D81C23FB181B8893
S1132150DAB200E007221323FB181A701223FB18CB
S11321601322BA18127812011A703D4B1B68DB68EF
S1132170FA68D1181223FB181B781A001020FFF7F5
S113218049FA0A23FB181B8819000E20FFF7B6FA38
S1132190334B1B6820229A5C002300211620FFF792
S11321A037FCFFF777FCFFF714F903007B61BA698A
S11321B03B68D2187B699A4205D200F08DFB1E233E
S11321C0FB1803221A801E23FB181B88002B05D141
S11321D01E23FC18FFF76CFC030023801E23FB184E
S11321E01B88002B25D11323FB181B789AB21C23C0
S11321F0FB181C21791809888A1A1A80184B1B6845
S1132200174A1268D1681222BA1812788A18DA604A
S1132210134B1B6820229B5C002B04D1104B1B68C2
S11322202022012199541C23FB181B88002B87D1E1
S113223000E0C0461E23FB181B88002B05D17B68D9
S1132240102219001020FFF717FB054B1B68002212
S11322501A701E23FB181B881800BD4609B090BDD8
S1132260C830002080B584B000AFBA607B600F2313
S1132270FB18021C1A700E23FB180A1C1A70164B4A
S11322801B6801221A70144B1B680E22BA181278AC
S11322905A70114B1B68BA685A600F4B1B687A68F6
S11322A09A600D4B1B680F22BA1812781A760A4BE3
S11322B01B68BA691A61084B1B680022DA60064B76
S11322C01B6800225A83044B1B6820220021995466
S11322D0C046BD4604B080BDC830002080B582B081
S11322E000AF234B1B78DAB2FB1D7F218A431A709F
S11322F0FB1D1B78002B37D01E4B1B681B78002B53
S113230032D01C4B1B685B78062B10D89A001A4BF2
S1132310D3181B689F4600F0A7F909E000F0E4F920
S113232006E000F03BFA03E000F07CFA00E0C0466F
S1132330104B1B681B7801225340DBB2002B13D0D7
S11323400020FFF73FFC0B4B1B689B6B002B0BD053
S1132350084B1B689A6B074B1B685B781800054B8E
S11323601B68DB6B19009047C046BD4602B080BDB8
S113237000000240C8300020383B000080B582B025
S113238000AF204B1B681A691E4B1B68DB68D31A0D
S11323901B097B607B68072B02D87B689AB200E03C
S11323A00722BB1C1A80BB1C1B88DAB27B1C1201DF
S11323B01A70144B1B685A68124B1B68DB68D118DF
S11323C07B1C1B781A001020FFF724F9BB1C1B8808
S11323D019000E20FFF792F90A4B1B687A1C127839
S11323E05A61084B1B685878064B1B6820229A5C7C
S11323F0044B1B681B7E0021FFF70AFBC046BD4649
S113240002B080BDC830002080B584B000AF3A4B24
S11324101B681A69384B1B68DB68D31A1B09BB603D
S1132420BB68072B02D8BB689AB200E00722BB1D29
S11324301A80BB1D1B88DAB20F23FB1812011A7015
S11324402D4B1B6820229B5C002B26D1BB68062BDE
S113245002D8BB689AB200E00622BB1D1A80BB1DDD
S11324601B88DAB20F23FB1812011A70224B1B6867
S1132470DB69102219001020FFF7CCF81E4B1B68F3
S11324805A681D4B1B68DB68D1180F23FB181B7897
S11324901A002020FFF7BEF80DE0174B1B685A689E
S11324A0154B1B68DB68D1180F23FB181B781A0027
S11324B01020FFF7AFF8104B1B681B691B099BB278
S11324C019000E20FFF71AF90B4B1B680F22BA18DC
S11324D012785A61084B1B685878074B1B682022F6
S11324E09A5C054B1B681B7E0021FFF791FAC046DE
S11324F0BD4604B080BDC046C830002080B582B05F
S113250000AF214B1B681A691F4B1B68DB68D31A89
S1132510702B0AD81C4B1B681B69DAB21A4B1B6858
S1132520DB68DBB2D31ADAB200E07022FB1D1A704A
S1132530154B1B685A68144B1B68DB68D118FB1DCC
S11325401B781A001020FFF765F80F4B1B68243323
S1132550012219000C20FFF753F90B4B1B68FA1DDD
S113256012785A61084B1B685878074B1B68202265
S11325709A5C054B1B681B7E0021FFF749FAC04695
S1132580BD4602B080BDC046C830002080B582B0D0
S113259000AF344B1B681A69324B1B68DB68D31AD3
S11325A0702B0AD82F4B1B681B69DAB22D4B1B68A2
S11325B0DB68DBB2D31ADAB200E07022FB1D1A70BA
S11325C0FB1D1B7810211800FFF71EFB0200BB1D2A
S11325D01A70244B1B685A68224B1B68DB68D1189D
S11325E0FB1D1B781A001020FFF714F81D4B1B6805
S11325F02433012219000C20FFF702F9194B1B6840
S11326005B6B9BB219000820FFF778F8BB1D1B78A1
S113261010336F2B0FD8BB1D1B781033D8B2114B5E
S11326201B681B6B10221900FEF7F4FF0D4B1B688F
S11326302C22012199540B4B1B68FA1D12785A6104
S1132640084B1B685878074B1B6820229A5C054B83
S11326501B681B7E0021FFF7DBF9C046BD4602B0B4
S113266080BDC046C8300020B0B500AF1D4B1C680B
S1132670FFF71EFA030063831A4B1B685B8B002B66
S113268004D0184B1B6800221A7028E0154B1B68F5
S11326909A68144B1B68DB68D118124B1B685B6982
S11326A0DBB21A001020FFF7E7F80E4B1B680D4A47
S11326B01268D1680B4A12685269D2B28A18DA6079
S11326C0084B1B68DA68074B1B681B699A4204D3E2
S11326D0044B1B6800221A7001E0FFF74FFEBD4651
S11326E0B0BDC046C8300020B0B500AF2A4B1C684E
S11326F0FFF7DEF903006383274B1B685B8B002B1A
S113270004D0254B1B6800221A7043E0224B1B683F
S113271020229B5C002B14D11F4B1B689A681E4B14
S11327201B68DB68D1181C4B1B685B69DBB21A00A1
S11327302020FFF7A1F8184B1B682022012199548F
S11327400EE0154B1B689A68134B1B68DB68D118A5
S1132750114B1B685B69DBB21A001020FFF78CF881
S11327600D4B1B680C4A1268D1680B4A12685269F7
S1132770D2B28A18DA60084B1B68DA68064B1B6809
S11327801B699A4204D3044B1B6800221A7001E0AF
S1132790FFF73AFEBD46B0BDC8300020B0B500AF6B
S11327A01F4B1C68FFF784F9030063831C4B1B68F1
S11327B05B8B002B04D01A4B1B6800221A702CE090
S11327C0174B1B6820229B5C002B04D1144B1B6805
S11327D0202201219954124B1B68114A1268D168B6
S11327E00F4A12685269D2B28A18DA600C4B1B681D
S11327F0DA680B4B1B681B699A420CD3084B1B68A5
S113280000221A70064B1B689B68102219002020B6
S1132810FFF732F801E0FFF771FEBD46B0BDC046D8
S1132820C830002090B583B000AF2A4B1C68FFF776
S11328303FF903006383274B1B685B8B002B04D099
S1132840244B1B6800221A7040E0224B1B68202294
S11328509B5C002B04D11F4B1B682022012199543F
S11328601C4B1B681B4A1268D1681A4A12685269C9
S1132870D2B28A18DA60174B1A68164B1B682C21DF
S11328805B5C591E8B41DBB201214B40DBB2191C4E
S113289001230B40DBB213700E4B1B681B78012223
S11328A05340DBB2002B0FD01420FFF7DFF80300F6
S11328B07B60084B1B689B6A7A68120C12045142B5
S11328C04A41D2B21A7001E0FFF760FEBD4603B080
S11328D090BDC046C830002080B500AF174B1B68C0
S11328E01B78002B26D00020FFF76CF9FFF7D2F8F5
S11328F0124B1B685B78012B18D0104B1B685B785C
S1132900032B13D00D4B1B681A690C4B1B68DB6837
S11329109A420BD0094B1B685878084B1B681B7EE6
S113292000220021FFF774F8FFF7B4F8034B1B688B
S113293000221A70C046BD4680BDC046C830002083
S113294080B582B000AF78607B681B691B090322E5
S113295013401800BD4602B080BD80B584B000AFFE
S113296078607B681B6CFB60FB681B0901221340C9
S1132970FB60FB685A1E9341DBB21800BD4604B0ED
S113298080BD80B584B000AF78607B681B6CFB6051
S1132990FB68DB0801221340FB60FB685A1E93416D
S11329A0DBB21800BD4604B080BD80B584B000AF72
S11329B078607B681B6CFB60FB689B0801221340FA
S11329C0FB60FB685A1E9341DBB21800BD4604B09D
S11329D080BD80B584B000AF78607B681B6CFB6001
S11329E0FB685B0801221340FB60FB685A1E93419D
S11329F0DBB21800BD4604B080BD80B584B000AF22
S1132A0078607B681B6CFB60FB6801221340FB60F1
S1132A10FB685A1E9341DBB21800BD4604B080BD6A
S1132A2080B582B000AF78607B68DB681B0E032240
S1132A3013401800BD4602B080BD80B582B000AF1F
S1132A4078607B68DB689B0E032213401800BD4648
S1132A5002B080BD80B582B000AF78607B681B692E
S1132A60022213405A1E9341DBB21800BD4602B045
S1132A7080BD80B582B000AF78607B681B6901229D
S1132A8013405A1E9341DBB21800BD4602B080BD0C
S1132A9080B582B000AF78607B681B699B08032215
S1132AA013401800BD4602B080BD80B582B000AFAF
S1132AB078607B685A6880231B0113405A1E934137
S1132AC0DBB21800BD4602B080BD80B582B000AF55
S1132AD078607B685B681B0A072213401800BD46B8
S1132AE002B080BD80B582B000AF78607B685B685F
S1132AF01B090F2213401800BD4602B080BD80B5EB
S1132B0082B000AF78607B681B6A1B0E0F221340F3
S1132B101800BD4602B080BD80B582B000AF7860B9
S1132B207B681B691B0E0F2213401800BD4602B0C0
S1132B3080BD80B582B000AF78607B681B691B0CD8
S1132B400F2213401800BD4602B080BD80B582B08C
S1132B5000AF78607B681B691B090F2213401800C3
S1132B60BD4602B080BD80B582B000AF78607B689E
S1132B701B690F2213401800BD4602B080BD80B50A
S1132B8082B000AF78607A68C1239B00D3580722D3
S1132B9013401800BD4602B080BD80B582B000AFBE
S1132BA078607A68C1239B00D3581B0A072213401C
S1132BB01800BD4602B080BD80B582B000AF786019
S1132BC07A6881239B00D358072213401800BD461E
S1132BD002B080BD80B582B000AF78607A6881238E
S1132BE09B00D3581B0A072213401800BD4602B0AD
S1132BF080BD80B582B000AF78607A6882235B00C4
S1132C00D358072213401800BD4602B080BD80B5DA
S1132C1082B000AF78607A6882235B00D3581B0AC5
S1132C20072213401800BD4602B080BD80B582B0B3
S1132C3000AF78607A6880239B00D25880235B04BD
S1132C4013405A1E9341DBB21800BD4602B080BD4A
S1132C5080B582B000AF78607A6882239B00D35835
S1132C60012213401800BD4602B080BD80B582B079
S1132C7000AF78607A68C0239B00D25880235B043D
S1132C8013405A1E9341DBB21800BD4602B080BD0A
S1132C9080B582B000AF78607A68C2239B00D358B5
S1132CA0032213401800BD4602B080BD80B582B037
S1132CB000AF78607A6880235B00D25880235B047D
S1132CC013405A1E9341DBB21800BD4602B080BDCA
S1132CD080B584B000AF78600A00FB1C1A70FB1C3E
S1132CE01A780A4B5200D35A1A007B689200D358C0
S1132CF0FB60FB689B0F01221340FB60FB685A1EBC
S1132D009341DBB21800BD4604B080BD543B0000C3
S1132D1080B582B000AF78600A00FB1C1A70FB1CFF
S1132D201A78074B5200D35A1A007B689200D35882
S1132D301B0E072213401800BD4602B080BDC046DA
S1132D40543B000080B582B000AF78600A00FB1CE1
S1132D501A70FB1C1A78074B5200D35A1A007B686E
S1132D609200D3581B09012213401800BD4602B03B
S1132D7080BDC046543B000080B582B000AF78608F
S1132D800A00FB1C1A70FB1C1A78064B5200D35A1B
S1132D901A007B689200D3580F2213401800BD46D6
S1132DA002B080BD543B000080B584B000AF7860B1
S1132DB00F23FB187A6892781A700F23FB180F22DE
S1132DC0BA181278D2091A700F23FB181B785A42CA
S1132DD05341DBB21800BD4604B080BD80B584B059
S1132DE000AF02003960FB1D1A700E23FB1800228D
S1132DF01A800023BB60FB1D1B780F2B5DD89A0043
S1132E00374BD3181B689F46002000F0CFFB03000C
S1132E10BB6057E0012000F0C9FB0300BB6051E038
S1132E20022000F0C3FB0300BB604BE000F0F0FAAB
S1132E300300BB6046E000F0B3FC0300BB6041E06C
S1132E4000F0CAFC0300BB603CE000F091FC03000E
S1132E50BB6037E0234B1B68BB6033E000F03CFBF6
S1132E600300BB602EE00021042000F0FDFB030002
S1132E70BB6027E00121042000F0F6FB0300BB60E7
S1132E8020E00021052000F0EFFB0300BB6019E007
S1132E900121052000F0E8FB0300BB6012E00021E3
S1132EA0062000F0E1FB0300BB600BE001210620DB
S1132EB000F0DAFB0300BB6004E00E23FB180422DD
S1132EC01A80C0463B68002B02D03B68BA681A607F
S1132ED00E23FB181B881800BD4604B080BDC046F5
S1132EE0283C0000EC30002080B586B000AF020022
S1132EF03960FB1D1A701623FB1800221A80002368
S1132F003B61FB1D1B78153B0C2B00D9BFE09A00DD
S1132F10724BD3181B689F46714B1800FFF780FD56
S1132F200300FB60FB68022B00D9B5E06D4BFA6827
S1132F309200D3583B61AFE0694B1800FFF77DFD69
S1132F400300FB60FB68022B00D9A7E0654BFA681D
S1132F509200D3583B61A1E000F05AFA03003B61B0
S1132F60AFE000F0E9FA03003B61AAE05E4B180011
S1132F70FFF71AFF031E00D192E000F04BFC0300A0
S1132F803B618DE0584B1800FFF70EFF031E00D184
S1132F9088E0534B1800FFF76CFD031E02D0FA23A0
S1132FA09B0000E000233B617CE04F4B1800FFF7DF
S1132FB0FBFE031E00D177E0494B1800FFF74AFDE2
S1132FC0031E02D0FA23DB0100E000233B616BE027
S1132FD0454B1800FFF7E8FE031E67D0FA235B0297
S1132FE03B6163E03E4B1800FFF7B7FC03001A0097
S1132FF001235340DBB2002B5AD01623FB18802246
S113300052001A8054E0364B1800FFF7BAFC030054
S11330101A0001235340DBB2002B4BD01623FB18BC
S1133020802252001A8045E02D4B1800FFF7BDFCAA
S113303003001A0001235340DBB2002B3CD01623BB
S1133040FB18802252001A8036E0254B1800FFF747
S1133050C0FC03001A0001235340DBB2002B2DD027
S11330601623FB18802252001A8027E01C4B1800FC
S1133070FFF7C3FC03001A0001235340DBB2002B0B
S11330801ED01623FB18802252001A8018E0162343
S1133090FB1804221A8014E0C04612E0C04610E077
S11330A0C0460EE0C0460CE0C0460AE0C04608E058
S11330B0C04606E0C04604E0C04602E0C04600E068
S11330C0C0463B68002B02D03B683A691A6016235D
S11330D0FB181B881800BD4606B080BD683C000084
S11330E000800440F030002000D0074080B584B058
S11330F000AF0200FB1D1A700E23FB1800221A8079
S1133100FB1D1B78222B13D9FB1D1B78322B0FD0F0
S1133110FB1D1B78352B0BD0FB1D1B78372B07D0E1
S1133120FB1D1B783A2B03D0FB1D1B78442B04D1C9
S11331300E23FB1804221A8017E0FB1D1B780E4A8D
S113314019001000FFF7C4FD03001A0001235340C7
S1133150DBB2002B05D00E23FB18802252001A800C
S113316003E00E23FB1800221A800E23FB181B8891
S11331701800BD4604B080BD0050064090B585B02F
S113318000AF02003960FB1D1A700E23FB180022E9
S11331901A800023BB600E23FC18FB1D1B7818004B
S11331A0FFF7A4FF030023800E23FB181B88002BCA
S11331B000D071E0FB1D1B783E4AD35C1A0020232B
S11331C013400CD0012000F0F1F9031E02D180233A
S11331D05A0000E000220E23FB181A8027E0FB1D92
S11331E01B78344AD35C1A00402313400CD00020CF
S11331F000F0DCF9031E02D180235A0000E0002213
S11332000E23FB181A8012E0FB1D1B78294AD35C9D
S11332105BB2002B0BDA022000F0C8F9031E02D1C6
S113322080235A0000E000220E23FB181A800E238C
S1133230FB181B88002B2FD1FB1D1B781D4AD35C68
S11332401A001823134027D0FB1D1B78194AD35C9E
S11332501A000823134007D0FB1D1B780021180017
S113326000F06CF80300BB60FB1D1B78114AD35CB3
S11332701A001023134007D0FB1D1B7801211800EE
S113328000F05CF80300BB60BB68002B04D10E2384
S1133290FB18802252001A803B68002B02D03B6846
S11332A0BA681A600E23FB181B881800BD4605B0C7
S11332B090BDC046E03B000090B585B000AF020071
S11332C03960FB1D1A70FB1D1B78112B0BD80E23C4
S11332D0FC183A68FB1D1B7811001800FFF77EFDEF
S11332E00300238023E0FB1D1B78212B0BD80E2326
S11332F0FC183A68FB1D1B7811001800FFF7F4FD59
S11333000300238013E0FB1D1B78442B0BD80E23F2
S1133310FC183A68FB1D1B7811001800FFF72EFFFC
S11333200300238003E00E23FB1804221A800E23DB
S1133330FB181B881800BD4605B090BD80B586B04B
S113334000AF0200FB1D1A70BB1D0A1C1A7000237B
S11333507B61FB1D1B782D4A19001000FFF7F2FC5E
S113336003003B61FB1D1B78284A19001000FFF77E
S113337003FD0300FB603A69FB689A4241D8FB1DD8
S11333801B78224A19001000FFF7A2FC031E38D054
S1133390FB1D1B781D4A19001000FFF7B9FC030040
S11333A0022B0CD0032B13D0012B1AD1BB1D1B787D
S11333B01900062000F058F903007B6114E0BB1DDE
S11333C01B781900042000F04FF903007B610BE027
S11333D0BB1D1B781900052000F046F903007B6132
S11333E002E000237B61C046FB6801331900786961
S11333F0FDF786F903007B613B695A1C7B695343E3
S11334007B617B691800BD4606B080BD0050064054
S113341080B582B000AF2E4B1800FFF746FB031EA9
S11334204FD02B4B1800FFF75DFB03000E2B38D851
S11334309A00284BD3181B689F4600F04DF80300F0
S11334407B6031E00121062000F00EF903007B606F
S11334502AE00121042000F007F903007B6023E047
S11334600121052000F000F903007B601CE000202E
S113347000F09CF803007B6016E0012000F096F851
S113348003007B6010E0FA235B027B600CE000F039
S1133490C1F903007B6007E000F04EF803007B6095
S11334A002E000237B60C046094B1800FFF70DFBC8
S11334B00300013319007868FDF722F903007B60EB
S11334C001E000237B607B681800BD4602B080BD2C
S11334D0008004409C3C000080B582B000AF154BD6
S11334E01800FFF70CFB0300012B0BD004D3022BB5
S11334F00DD0032B10D014E0022000F057F8030085
S11335007B6011E000F034F903007B600CE000F014
S113351047F903007B6007E000F05EF903007B607D
S113352002E000237B60C0467B681800BD4602B001
S113353080BDC0460040064080B582B000AF194B44
S11335401800FFF7FDF90300012B0CD004D3022B64
S113355015D0032B17D01DE00021062000F084F8BD
S113356003007B6019E00F4B1800FFF773FA031E8A
S113357002D0FA23DB0100E000237B600DE00A4B5C
S11335801B687B6009E00021052000F06DF8030052
S11335907B6002E000237B60C0467B681800BD4668
S11335A002B080BD00800440EC30002080B584B0BF
S11335B000AF0200FB1D1A702A4B1800FFF7ACFA8B
S11335C00300022B08D0032B0BD0012B0ED100F0EB
S11335D0CFF80300FB600CE000F0E2F80300FB60AE
S11335E007E000F0F9F80300FB6002E00023FB6051
S11335F0C0461C4B1800FFF79CFA03000133190066
S1133600F868FDF77DF80300FB60FB1D1B78012BB8
S113361004D0022B0FD0002B1DD019E0114B180041
S1133620FFF794FA030001331900F868FDF768F80E
S11336300300FB6010E00B4B1800FFF794FA030043
S113364001331900F868FDF75BF80300FB6003E041
S11336500023FB6000E0C046FB681800BD4604B0D0
S113366080BDC0460040064080B584B000AF020073
S1133670FB1D1A70BB1D0A1C1A700023BB60BB1D06
S11336801B78002B02D0012B2ED05BE0FB1D1B7896
S1133690052B04D0062B18D0042B0BD020E000F00F
S11336A09BF80300FB60314B1800FFF768FA030036
S11336B0BB6018E000F074F80300FB602B4B1800AB
S11336C0FFF77AFA0300BB600DE000F051F8030045
S11336D0FB60264B1800FFF78CFA0300BB6002E086
S11336E00023FB60C04630E0FB1D1B78052B04D093
S11336F0062B18D0042B0BD020E000F06DF803004B
S1133700FB601A4B1800FFF748FA0300BB6018E08F
S113371000F046F80300FB60144B1800FFF75AFA58
S11337200300BB600DE000F023F80300FB600F4BC7
S11337301800FFF76CFA0300BB6002E00023FB6093
S1133740C04602E00023FB60C046BB68002B06D0E5
S1133750BB68013BFA68DA401300FB6001E0002318
S1133760FB60FB681800BD4604B080BD0040064005
S113377080B582B000AF084B1800FFF797FA031E1C
S113378003D0064B1B687B6001E000237B607B68F1
S11337901800BD4602B080BD00400640E83000205D
S11337A080B582B000AF00237B60094B1800FFF79F
S11337B03DFA031E07D0064B1800FFF749FA031E13
S11337C001D0044B7B607B681800BD4602B080BD0D
S11337D00040064000127A0080B582B000AF0B4B67
S11337E01800FFF743FA031E09D0084B1800FFF72F
S11337F04FFA0200064B9200D3587B6001E000238D
S11338007B607B681800BD4602B080BD0040064066
S1133810D83C000080B582B000AF00237B60184B19
S11338201800FFF735F90300012B09D004D3022B4C
S113383009D0032B13D01EE0FA235B027B601AE04D
S113384000237B6017E00E4B1800FFF703F9031EFB
S113385002D0FA23DB0100E000237B600BE0084B7D
S11338601800FFF7F7F8031E02D0FA23DB0100E08B
S113387000237B60C0467B681800BD4602B080BD53
S11338800080044080B582B000AF02003960FB1DA7
S11338901A703A68FB1D1B7811001800FFF70CFD25
S11338A003001800BD4602B080BD000080B58EB094
S11338B000AF394B3B63394B3B62394B7B61394B2E
S11338C0FB62394BFB61394B3B61394BBB62394B72
S11338D0FB60394B7B62394BBB61394BBB6009E000
S11338E03B6A1A783B6B1A703B6B01333B633B6A50
S11338F001333B627A693B6A9A42F1D109E0FB6980
S11339001A78FB6A1A70FB6A0133FB62FB690133A4
S1133910FB613A69FB699A42F1D105E0BB6A002276
S11339201A70BB6A0133BB62FA68BB6A9A42F5D16A
S113393009E0BB691A787B6A1A70BB690133BB6101
S11339407B6A01337B62BA68BB699A42F1D1FB1D81
S113395000221A701B4A1C4B9A4216D000237B6328
S11339600AE0194B7A6B9200D158164B7A6B92008D
S1133970D1507B6B01337B63144B9B087A6B9A4267
S1133980EFD3134B0F4A1A6002E0114B0E4A1A6030
S1133990C046BD460EB080BDC0000020F03C000013
S11339A0F03C0000C0000020F03C0000583D000046
S11339B0C03000203C31002000FCFF1F583D0000B7
S11339C0583D00000000002000000000C00000007E
S11339D008ED00E080B500AF064B074A5A60054B7E
S11339E05B68044B054A1A60024B054A9A60C0465C
S11339F0BD4680BD0020054020C528D920210000F7
S1133A00FFFF000010B5040000F002F8200010BD14
S1133A1070B5CBB20D0001001F2A35D903214442F1
S1133A200C400600002C06D0121B0419057001304E
S1133A308442FBD12600002B05D019061C04214327
S1133A4018020B43034355093100002D0FD0290000
S1133A5030000139036043608360C36003614361E4
S1133A608361C36120300029F3D169017118D00644
S1133A70400F07D00D000400013C08C5002CFBD109
S1133A808000091803200240002A04D08A180B7011
S1133A9001319142FBD170BD01B40248844601BC9E
S1133AA0604700BFC1000020FFFFFFFFFFFFFFFFD3
S1133AB0FFFFFFFFFFFFFFFF0001020304050607EE
S1133AC008090A0B0C0D0E0F010153484500800034
S1133AD000000000000000B00102534845008000CF
S1133AE000000000000000B00103534845008000BE
S1133AF000000000000000B03C1400004614000068
S1133B00501400005A140000621400006C140000E9
S1133B1076140000801400008A140000921400003F
S1133B209C140000A6140000B0140000BA14000095
S1133B30C4140000CE1400002E230000162300003D
S1133B401C230000162300001C2300002223000075
S1133B502823000000000000000000000000000016
S1133B600000000000000000000000000000000051
S1133B700000000000000000000000000000000041
S1133B800000000000000000000000000000000031
S1133B900000000000000000000000000000000021
S1133BA000000000000073003200210049004A00B8
S1133BB04B004C004D003D00000024003600000086
S1133BC0200000003800390000003B005A00660065
S1133BD037002C002D0040006A006B00000000003C
S1133BE000000000000000000000000000000000D1
S1133BF000000000000000000000000000414141FE
S1133C00414100000000000000202020202020204E
S1133C1020200040400080004848003030303030E0
S1133C203036303000000000082E0000142E000052
S1133C30202E00002C2E0000362E0000402E000006
S1133C404A2E0000BA2E0000542E00005C2E000004
S1133C50662E0000742E0000822E0000902E0000BC
S1133C609E2E0000AC2E0000182F0000382F0000FC
S1133C70582F0000622F00006C2F0000842F0000DA
S1133C80AA2F0000D02F0000E42F0000063000000F
S1133C90283000004A3000006C3000003A34000044
S1133CA0A234000044340000A23400005234000066
S1133CB0A2340000603400006E340000A23400001E
S1133CC07A34000086340000A23400008E340000F0
S1133CD0A234000098340000006CDC0200000000F4
S1133CE0000004000000001000000014FFFFFFFFAC
S1133CF080B584B000AF78600E23FB1800221A80D0
S1133D001449144B1B78DBB2802252421343DBB2BA
S1133D100B7006E07B689B69013302D07B689B696A
S1133D2098470C4B1B78DBB25BB2002BF2DA094BE1
S1133D301B78DBB21A007123134003D00E23FB1847
S1133D4001221A800E23FB181B881800BD4604B0FC
S10B3D5080BDC04600000240E2
S90306A155
